0283723650230502010010100004+35033-106617SY-MT+1618KABQ V0200301N004612200019N0160001N1+00281-01221102811ADDGF100991001001999999001001KA1120M+00561KA2180N-00161MA1102811084611MD1310171+9999REMSYN092AAXX  01004 72365 32966 00309 10028 21122 38461 40281 53017 92356 333 10056 21016 555 90100;MET092METAR KABQ 312356Z 03009KT 10SM CLR 03/M12 A3036 RMK AO2 SLP281 T00281122 10056 20017 53017;
0155723650230502010010100567+35042-106610FM-15+1620KABQ V0303605N004152200059N0160935N5+00115-01175102955ADDAA101000095GF100991999999999999999999MA1102915084665REMMET09112/31/09 17:56:01 METAR KABQ 010056Z 36008KT 10SM CLR 01/M12 A3039 RMK AO2 SLP295 T00111117
0155723650230502010010101567+35042-106610FM-15+1620KABQ V0300105N004652200059N0160935N5+00005-01335103025ADDAA101000095GF100991999999999999999999MA1102955084695REMMET09112/31/09 18:56:01 METAR KABQ 010156Z 01009KT 10SM CLR 00/M13 A3040 RMK AO2 SLP302 T00001133
0176723650230502010010102567+35042-106610FM-15+1620KABQ V0303605N004152200059N0160935N5-00065-01335103105ADDAA101000095GF100991999999999999999999MA1102985084725MD1140144+9999REMMET09812/31/09 19:56:02 METAR KABQ 010256Z 36008KT 10SM CLR M01/M13 A3041 RMK AO2 SLP310 T10061133 51014
0159723650230502010010103004+35033-106617FM-12+1618KABQ V0203601N004112200019N0160001N1-00061-01331103101ADDGA1001+999999999GF100991001001999999001001MA1999999084751MD1110141+9999REMSYN076AAXX  01034 72365 32966 03608 11006 21133 38475 40310 51014 90256 555 90103;
0156723650230502010010103567+35042-106610FM-15+1620KABQ V0303605N004652200059N0160935N5-00175-01225103145ADDAA101000095GF100991999999999999999999MA1103015084755REMMET09212/31/09 20:56:02 METAR KABQ 010356Z 36009KT 10SM CLR M02/M12 A3042 RMK AO2 SLP314 T10171122
0156723650230502010010104567+35042-106610FM-15+1620KABQ V0303505N002652200059N0160935N5-00175-01225103185ADDAA101000095GF100991999999999999999999MA1103085084815REMMET09212/31/09 21:56:02 METAR KABQ 010456Z 35005KT 10SM CLR M02/M12 A3044 RMK AO2 SLP318 T10171122
0312723650230502010010105567+35042-106610SY-MT+1620KABQ V0303005N002152200059N0160935N5-00225-01225103145ADDAA101000095GF100991001001999999001001KA1240M+00281KA2240N-00221MA1103055084785MD1040074+9999REMSYN092AAXX  01064 72365 32966 03004 11022 21122 38481 40314 50007 90556 333 10028 21022 555 90106;MET11012/31/09 22:56:02 METAR KABQ 010556Z 30004KT 10SM CLR M02/M12 A3043 RMK AO2 SLP314 T10221122 10028 21022 50007
0166723650230502010010106567+35042-106610FM-15+1620KABQ V0303105N002152200059N0160935N5-00395-01225103175ADDAA101000095GF100991999999999999999999MA1103085084815REMMET10212/31/09 23:56:02 METAR KABQ 010656Z 31004KT 10SM CLR M04/M12 A3044 RMK AO2 SLP317 T10391122 400561039
0965723650230502010010106596+35042-106610SOD  +1620KABQ V030999999999999999999999999999+99999+99999999999ADDAA124000025AJ100009199999999AN1024000039AX1015245KA1240M+00565KA2240N-00385MG1084414999999OE11240134129005315OE22240093931005075OE33240033199999995REMSOD77124 HR PRECIPITATION (IN):T     WEATHER(CODE):1  24 HR MAX TEMP (F):42 24 HR MAX TEMP TIME (LST):1437 24 HR MIN TEMP (F):25 24 HR MIN TEMP TIME (LST):2359 AVERAGE STATION PRESSURE:24.925 MINIMUM SEA LEVEL PRESSURE:24.92 TIME OF OCCURRENCE:0108 PEAK WIND SPEED (MPH):30  PEAK WIND DIR (DEG):290 PEAK WIND TIME (LST):0531  FASTEST 2MIN SPEED (MPH):21 FASTEST 2MIN DIR (DEG):310 FASTEST 2MIN TIME (LST):0507 AVERAGE WIND SPEED (MPH):7.4  24 HR AVG TEMP (F):34 DEPART FROM NORMAL: 0   HEATING DEGREE DAYS:31  COOLING DEGREE DAYS:0   LATEST DAY MAX TEMP (0700-1900 LST):42  LATEST NIGHT MIN TEMP(1900-0800 LST):29 HOURLY INCREMENTAL PRECIPITATION VALUES (IN):.00 0.00 T    T    0.00 0.00 0.00 0.00 0.00 0.00 0.00 0.00 0.00 0.00 0.00 0.00 0.00 0.00 0.00 0.00 0.00 0.00 0.00 0.00EQDR01     N7GJS072R02     N7GKS075
1306723650230502010010106596+35042-106610SOM  +1620KABQ V030999999999999999999999999999+99999+99999999999ADDAB10003895AD10002090708999999999AE1055005005005AH1005000890805345AH2010001390805345AH3015001390805345AH4020001390805345AH5030001390805345AH6045001390805345AI1060001390805345AI2080001390805345AI3100001390805345AI4120001390805345AI5150001390805345AI6180001390805345AK1000099999999AM1001592323999999999AN1744001899KB1744N-04445KB2744M+06505KB3744A+01065KC1N9-01110499995KC2M9+01330199995KD1744H09585KD2744C00005KE1015005315005MH1083664101694MK1103183121569099050804569REMSOM810PCP MTOT:0.15 DEPNRM:-0.5 PCP GT 24HRS:0.08 DATE(S):7-8 DAYS W/PCP >=.01:5  DAYS W/PCP >=.10:0  DAYS W/ PCP >=.50:0 DAYS W/PCP >=1.00:0 MSDP AMTS W/DATE-TIME TAGS:MIN:5 0.03  08/0534 MIN:10 0.05  08/0534 MIN:15 0.05  08/0534 MIN:20 0.05  08/0534 MIN:30 0.05  08/0534 MIN:45 0.05  08/0534 MIN:60 0.05  08/0534 MIN:80 0.05  08/0534 MIN:100 0.05  08/0534 MIN:120 0.05  08/0534 MIN:150 0.05  08/0534 MIN:180 0.05  08/0534 AVG DLY MIN:24.0  AVG DLY MAX:43.7  AVG MLY TMP:33.9  DEP NORM:-2.2  MIN TMP:12 DATE(S):04 MAX TMP:56  DATE(S):01 DAYS MAX <=32:1 DAYS MAX >=90:0  DAYS MIN <=32:31 DAYS MIN  <=0:0  AVG STP:24.705 LWST SLP:29.23 DATE/TIME:080447 HGST SLP:30.48 DATE/TIME:312335 HDD MTH TOT:958 DEP NORM:+60 SEASON(JUL 1-JUN 30):1379 DEP NORM:-410 CDD MTH TOT:0 DEP NORM: 0 SEASON(JAN 1-DEC 31):0 DEP NORM:-1290EQDR01  0.087ADP081
0162723650230502010010107567+35042-106610FM-15+1620KABQ V0303405N003152200059N0160935N5-00395-01175103095ADDAA101000095GF100991999999999999999999MA1103015084755REMMET09801/01/10 00:56:02 METAR KABQ 010756Z 34006KT 10SM CLR M04/M12 A3042 RMK AO2 SLP309 T10391117 (RSW)
0264723650230502010010108567+35042-106610SY-MT+1620KABQ V0301505N001552200059N0160935N5-00615-01225103175ADDAA101000095GF100991001001999999001001MA1103055084785MD1540024+9999REMSYN076AAXX  01094 72365 32966 01503 11061 21122 38481 40317 55002 90856 555 90109;MET10401/01/10 01:56:02 METAR KABQ 010856Z 15003KT 10SM CLR M06/M12 A3043 RMK AO2 SLP317 T10611122 55002 (RSW)
0162723650230502010010109567+35042-106610FM-15+1620KABQ V0300105N001552200059N0160935N5-00505-01175103115ADDAA101000095GF100991999999999999999999MA1103015084755REMMET09801/01/10 02:56:02 METAR KABQ 010956Z 01003KT 10SM CLR M05/M12 A3042 RMK AO2 SLP311 T10501117 (RSW)
0196723650230502010010110567+35042-106610FM-15+1620KABQ V0309999C000052200059N0160935N5-00565-01175103105ADDAA101000095GA1025+045725999GD11991+0457259GF102991999999999999999999MA1103015084755REMMET10101/01/10 03:56:02 METAR KABQ 011056Z 00000KT 10SM FEW150 M06/M12 A3042 RMK AO2 SLP310 T10561117 (RSW)
0254723650230502010010111567+35042-106610FM-15+1620KABQ V0309999C000052200059N0160935N5-00565-01175103095ADDAA101000095GA1025+045725999GD11991+0457259GF102991999999999999999999KA1999M-00281KA2999N-00721MA1102955084695MD1840074+9999REMMET11901/01/10 04:56:02 METAR KABQ 011156Z 00000KT 10SM FEW150 M06/M12 A3040 RMK AO2 SLP309 T10561117 11028 21072 58007 (RSW)
0185723650230502010010112004+35033-106617FM-12+1618KABQ V0209999C000012200019N0160001N1-00561-01171103091ADDGF102991999999999999999999KA1240M+00561KA2120N-00721MA1999999084721MD1810071+9999REMSYN092AAXX  01124 72365 32966 20000 11056 21117 38472 40309 58007 91156 333 10056 21072 555 90112;
0196723650230502010010112567+35042-106610FM-15+1620KABQ V0309999C000052200059N0160935N5-00615-01175103185ADDAA101000095GA1025+045725999GD11991+0457259GF102991999999999999999999MA1103015084755REMMET10101/01/10 05:56:02 METAR KABQ 011256Z 00000KT 10SM FEW150 M06/M12 A3042 RMK AO2 SLP318 T10611117 (RSW)
0234723650230502010010113567+35042-106610FM-15+1620KABQ V0309999C000052200059N0160935N5-00565-01175103205ADDAA101000095GA1025+027435999GA2045+045725999GD11991+0274359GD22991+0457259GF104991999999999999999999MA1102985084725REMMET10801/01/10 06:56:02 METAR KABQ 011356Z 00000KT 10SM FEW090 SCT150 M06/M12 A3041 RMK AO2 SLP320 T10561117 (CLR)
0374723650230502010010114567+35042-106610SY-MT+1620KABQ V0302805N001552200059N0160935N5-00505-01115103225ADDAA101000095GA1025+027435999GA2045+045725999GA3045+060965999GD11991+0274359GD22991+0457259GD32991+0609659GF104991999999999999999999MA1103015084755MD1140044+9999REMSYN076AAXX  01154 72365 32966 42803 11050 21111 38478 40322 51004 91456 555 90115;MET12101/01/10 07:56:02 METAR KABQ 011456Z 28003KT 10SM FEW090 SCT150 SCT200 M05/M11 A3042 RMK AO2 SLP322 T10501111 51004 (CLR)
0234723650230502010010115567+35042-106610FM-15+1620KABQ V0303005N003152200059N0160935N5-00285-01225103215ADDAA101000095GA1025+045725999GA2045+060965999GD11991+0457259GD22991+0609659GF104991999999999999999999MA1103015084755REMMET10801/01/10 08:56:02 METAR KABQ 011556Z 30006KT 10SM FEW150 SCT200 M03/M12 A3042 RMK AO2 SLP321 T10281122 (CLR)
0233723650230502010010116567+35042-106610FM-15+1620KABQ V0303005N003152200059N0160935N5+00005-01175103155ADDAA101000095GA1025+060965999GA2045+067065999GD11991+0609659GD22991+0670659GF104991999999999999999999MA1103055084785REMMET10701/01/10 09:56:02 METAR KABQ 011656Z 30006KT 10SM FEW200 SCT220 00/M12 A3043 RMK AO2 SLP315 T00001117 (CLR)
0389723650230502010010117567+35042-106610SY-MT+1620KABQ V0303405N002152200059N0160935N5+00225-01175103065ADDAA101000095GA1025+060965999GA2045+067065999GD11991+0609659GD22991+0670659GF104991999999999999999999KA1120M+00221KA2240N-00611MA1102985084725MD1840034+9999REMSYN092AAXX  01184 72365 32966 43404 10022 21117 38475 40306 58003 91756 333 10022 21061 555 90118;MET12501/01/10 10:56:02 METAR KABQ 011756Z 34004KT 10SM FEW200 SCT220 02/M12 A3041 RMK AO2 SLP306 T00221117 10022 21061 58003 (CLR)
0233723650230502010010118567+35042-106610FM-15+1620KABQ V0303205N002652200059N0160935N5+00335-01285102935ADDAA101000095GA1025+060965999GA2045+067065999GD11991+0609659GD22991+0670659GF104991999999999999999999MA1102845084605REMMET10701/01/10 11:56:02 METAR KABQ 011856Z 32005KT 10SM FEW200 SCT220 03/M13 A3037 RMK AO2 SLP293 T00331128 (CLR)
0233723650230502010010119567+35042-106610FM-15+1620KABQ V0303405N002652200059N0160935N5+00395-01225102865ADDAA101000095GA1025+060965999GA2045+067065999GD11991+0609659GD22991+0670659GF104991999999999999999999MA1102785084555REMMET10701/01/10 12:56:02 METAR KABQ 011956Z 34005KT 10SM FEW200 SCT220 04/M12 A3035 RMK AO2 SLP286 T00391122 (CLR)
0253723650230502010010120567+35042-106610FM-15+1620KABQ V0300105N002652200059N0160935N5+00505-01285102765ADDAA101000095GA1025+054865999GA2045+067065999GD11991+0548659GD22991+0670659GF104991999999999999999999MA1102685084465MD1640264+9999REMMET11301/01/10 13:56:02 METAR KABQ 012056Z 01005KT 10SM FEW180 SCT220 05/M13 A3032 RMK AO2 SLP276 T00501128 56026 (CLR)
0143723650230502010010121004+35033-106617FM-12+1618KABQ V0200101N002612200019N0160001N1+00501-01281102761ADDGF104991999999999999999999MA1999999084491MD1610261+9999REMSYN076AAXX  01214 72365 32966 40105 10050 21128 38449 40276 56026 92056 555 90121;
0232723650230502010010121567+35042-106610FM-15+1620KABQ V0300405N001552200059N0160935N5+00725-01335102575ADDAA101000095GA1025+054865999GA2045+067065999GD11991+0548659GD22991+0670659GF104991999999999999999999MA1102545084345REMMET10601/01/10 14:56:02 METAR KABQ 012156Z 04003KT 10SM FEW180 SCT220 07/M13 A3028 RMK AO2 SLP257 T00721133 (YF)
0232723650230502010010122567+35042-106610FM-15+1620KABQ V0303205N004652200059N0160935N5+00785-01445102545ADDAA101000095GA1025+054865999GA2045+067065999GD11991+0548659GD22991+0670659GF104991999999999999999999MA1102545084345REMMET10601/01/10 15:56:02 METAR KABQ 012256Z 32009KT 10SM FEW180 SCT220 08/M14 A3028 RMK AO2 SLP254 T00781144 (YF)
0350723650230502010010123567+35042-106610SY-MT+1620KABQ V0303505N005152200059N0160935N5+00615-01335102505ADDAA101000095GA1045+067065999GD12991+0670659GF104991999999999999999999KA1120M+00831KA2180N-00711MA1102475084295MD1640174+9999REMSYN092AAXX  02004 72365 32966 43510 10061 21133 38432 40250 56017 92356 333 10083 21071 555 90200;MET11701/01/10 16:56:02 METAR KABQ 012356Z 35010KT 10SM SCT220 06/M13 A3026 RMK AO2 SLP250 T00611133 10083 20022 56017 (YF)
0189723650230502010010200567+35042-106610FM-15+1620KABQ V0300205N006752200059N0160935N5+00445-01285102635ADDAA101000095GA1045+067065999GD12991+0670659GF104991999999999999999999MA1102545084345REMMET09401/01/10 17:56:02 METAR KABQ 020056Z 02013KT 10SM SCT220 04/M13 A3028 RMK AO2 SLP263 T00441128
0189723650230502010010201567+35042-106610FM-15+1620KABQ V0300205N005752200059N0160935N5+00285-01225102645ADDAA101000095GA1025+067065999GD11991+0670659GF102991999999999999999999MA1102545084345REMMET09401/01/10 18:56:02 METAR KABQ 020156Z 02011KT 10SM FEW220 03/M12 A3028 RMK AO2 SLP264 T00281122
0209723650230502010010202567+35042-106610FM-15+1620KABQ V0303605N005152200059N0160935N5+00285-01175102645ADDAA101000095GA1025+067065999GD11991+0670659GF102991999999999999999999MA1102545084345MD1140054+9999REMMET10001/01/10 19:56:02 METAR KABQ 020256Z 36010KT 10SM FEW220 03/M12 A3028 RMK AO2 SLP264 T00281117 51005
0143723650230502010010203004+35033-106617FM-12+1618KABQ V0203601N005112200019N0160001N1+00281-01171102641ADDGF102991999999999999999999MA1999999084381MD1110051+9999REMSYN076AAXX  02034 72365 32966 23610 10028 21117 38438 40264 51005 90256 555 90203;
0189723650230502010010203567+35042-106610FM-15+1620KABQ V0300705N002152200059N0160935N5+00065-01115102645ADDAA101000095GA1045+060965999GD12991+0609659GF104991999999999999999999MA1102545084345REMMET09401/01/10 20:56:02 METAR KABQ 020356Z 07004KT 10SM SCT200 01/M11 A3028 RMK AO2 SLP264 T00061111
0189723650230502010010204567+35042-106610FM-15+1620KABQ V0300405N002652200059N0160935N5+00065-01065102575ADDAA101000095GA1045+060965999GD12991+0609659GF104991999999999999999999MA1102545084345REMMET09401/01/10 21:56:02 METAR KABQ 020456Z 04005KT 10SM SCT200 01/M11 A3028 RMK AO2 SLP257 T00061106
0346723650230502010010205567+35042-106610SY-MT+1620KABQ V0300205N003152200059N0160935N5-00065-01005102515ADDAA101000095GA1045+060965999GD12991+0609659GF104991999999999999999999KA1240M+00611KA2240N-00721MA1102515084325MD1840034+9999REMSYN092AAXX  02064 72365 32966 40206 11006 21100 38435 40251 58003 90556 333 10061 21072 555 90206;MET11301/01/10 22:56:02 METAR KABQ 020556Z 02006KT 10SM SCT200 M01/M10 A3027 RMK AO2 SLP251 T10061100 10061 21006 58003
0200723650230502010010206567+35042-106610FM-15+1620KABQ V0303505N002652200059N0160935N5-00115-00945102515ADDAA101000095GA1045+060965999GD12991+0609659GF104991999999999999999999MA1102515084325REMMET10501/01/10 23:56:02 METAR KABQ 020656Z 35005KT 10SM SCT200 M01/M09 A3027 RMK AO2 SLP251 T10111094 400831072
0939723650230502010010206596+35042-106610SOD  +1620KABQ V030999999999999999999999999999+99999+99999999999ADDAA124000095AJ100009199999999AN1024000099KA1240M+00835KA2240N-00715MG1084514102474OE11240089434019345OE22240067102017575OE33240025999999995REMSOD75424 HR PRECIPITATION (IN):0.00  24 HR MAX TEMP (F):47 24 HR MAX TEMP TIME (LST):1555 24 HR MIN TEMP (F):19 24 HR MIN TEMP TIME (LST):0142 AVERAGE STATION PRESSURE:24.955 MINIMUM SEA LEVEL PRESSURE:30.26 TIME OF OCCURRENCE:2359 PEAK WIND SPEED (MPH):20  PEAK WIND DIR (DEG):340 PEAK WIND TIME (LST):1934  FASTEST 2MIN SPEED (MPH):15 FASTEST 2MIN DIR (DEG):20  FASTEST 2MIN TIME (LST):1757 AVERAGE WIND SPEED (MPH):5.8  24 HR AVG TEMP (F):33 DEPART FROM NORMAL: -1  HEATING DEGREE DAYS:32  COOLING DEGREE DAYS:0   LATEST DAY MAX TEMP (0700-1900 LST):47  LATEST NIGHT MIN TEMP(1900-0800 LST):19 HOURLY INCREMENTAL PRECIPITATION VALUES (IN):.00 0.00 0.00 0.00 0.00 0.00 0.00 0.00 0.00 0.00 0.00 0.00 0.00 0.00 0.00 0.00 0.00 0.00 0.00 0.00 0.00 0.00 0.00 0.00EQDR01     N7GJS072R02     N7GKS075
0196723650230502010010207567+35042-106610FM-15+1620KABQ V0300105N00315060965MN0160935N5-00115-00945102415ADDAA101000095GA1075+060965999GD13991+0609659GF107991999999999999999999MA1102445084265REMMET10101/02/10 00:56:02 METAR KABQ 020756Z 01006KT 10SM BKN200 M01/M09 A3025 RMK AO2 SLP241 T10111094 (CLR)
0216723650230502010010208567+35042-106610FM-15+1620KABQ V0303205N002152200059N0160935N5-00175-00945102405ADDAA101000095GA1045+060965999GD12991+0609659GF104991999999999999999999MA1102405084235MD1840074+9999REMMET10701/02/10 01:56:02 METAR KABQ 020856Z 32004KT 10SM SCT200 M02/M09 A3024 RMK AO2 SLP240 T10171094 58007 (CLR)
0143723650230502010010209004+35033-106617FM-12+1618KABQ V0203201N002112200019N0160001N1-00171-00941102401ADDGF104991999999999999999999MA1999999084261MD1810071+9999REMSYN076AAXX  02094 72365 32966 43204 11017 21094 38426 40240 58007 90856 555 90209;
0196723650230502010010209567+35042-106610FM-15+1620KABQ V0303605N003152200059N0160935N5-00175-00945102315ADDAA101000095GA1025+060965999GD11991+0609659GF102991999999999999999999MA1102375084205REMMET10101/02/10 02:56:02 METAR KABQ 020956Z 36006KT 10SM FEW200 M02/M09 A3023 RMK AO2 SLP231 T10171094 (CLR)
0196723650230502010010210567+35042-106610FM-15+1620KABQ V0303605N003152200059N0160935N5-00225-00895102275ADDAA101000095GA1025+060965999GD11991+0609659GF102991999999999999999999MA1102345084175REMMET10101/02/10 03:56:02 METAR KABQ 021056Z 36006KT 10SM FEW200 M02/M09 A3022 RMK AO2 SLP227 T10221089 (CLR)
0390723650230502010010211567+35042-106610SY-MT+1620KABQ V0300105N001552200059N0160935N5-00395-01005102325ADDAA101000095GA1025+027435999GA2045+060965999GD11991+0274359GD22991+0609659GF104991999999999999999999KA1240M+00831KA2120N-00561MA1102305084145MD1640094+9999REMSYN092AAXX  02124 72365 32966 40103 11039 21100 38417 40232 56009 91156 333 10083 21056 555 90212;MET12601/02/10 04:56:02 METAR KABQ 021156Z 01003KT 10SM FEW090 SCT200 M04/M10 A3021 RMK AO2 SLP232 T10391100 11006 21056 56009 (CLR)
0234723650230502010010212567+35042-106610FM-15+1620KABQ V0309999C00005060965MN0160935N5-00445-00945102355ADDAA101000095GA1025+027435999GA2085+060965999GD11991+0274359GD24991+0609659GF108991999999999999999999MA1102305084145REMMET10801/02/10 05:56:02 METAR KABQ 021256Z 00000KT 10SM FEW090 OVC200 M04/M09 A3021 RMK AO2 SLP235 T10441094 (CLR)
0272723650230502010010213567+35042-106610FM-15+1620KABQ V0309999C00005057915MN0160935N5-00445-00945102395ADDAA101000095GA1025+027435999GA2045+051825999GA3085+057915999GD11991+0274359GD22991+0518259GD34991+0579159GF108991999999999999999999MA1102305084145REMMET11501/02/10 06:56:02 METAR KABQ 021356Z 00000KT 10SM FEW090 SCT170 OVC190 M04/M09 A3021 RMK AO2 SLP239 T10441094 (CLR)
0374723650230502010010214567+35042-106610SY-MT+1620KABQ V0300205N00215054865MN0160935N5-00335-00895102375ADDAA101000095GA1025+033535999GA2075+054865999GA3075+057915999GD11991+0335359GD23991+0548659GD33991+0579159GF106991999999999999999999MA1102305084145MD1340014+9999REMSYN076AAXX  02154 72365 32966 60204 11033 21089 38417 40237 53001 91456 555 90215;MET12101/02/10 07:56:02 METAR KABQ 021456Z 02004KT 10SM FEW110 BKN180 BKN190 M03/M09 A3021 RMK AO2 SLP237 T10331089 53001 (CLR)
0272723650230502010010215567+35042-106610FM-15+1620KABQ V0309999C00005067065MN0160935N5-00285-00835102405ADDAA101000095GA1025+033535999GA2045+054865999GA3075+067065999GD11991+0335359GD22991+0548659GD33991+0670659GF107991999999999999999999MA1102305084145REMMET11501/02/10 08:56:02 METAR KABQ 021556Z 00000KT 10SM FEW110 SCT180 BKN220 M03/M08 A3021 RMK AO2 SLP240 T10281083 (RTD)
0233723650230502010010216567+35042-106610FM-15+1620KABQ V0309999C000052200059N0160935N5+00065-00895102295ADDAA101000095GA1025+030485999GA2045+060965999GD11991+0304859GD22991+0609659GF104991999999999999999999MA1102275084115REMMET10701/02/10 09:56:02 METAR KABQ 021656Z 00000KT 10SM FEW100 SCT200 01/M09 A3020 RMK AO2 SLP229 T00061089 (RTD)
0253723650230502010010217567+35042-106610FM-15+1620KABQ V0309999C000052200059N0160935N5+00335-00895102205ADDAA101000095GA1025+060965999GD11991+0609659GF102991999999999999999999KA1999M+00331KA2999N-00501MA1102245084085MD1840084+9999REMMET11801/02/10 10:56:02 METAR KABQ 021756Z 00000KT 10SM FEW200 03/M09 A3019 RMK AO2 SLP220 T00331089 10033 21050 58008 (RTD)
0185723650230502010010218004+35033-106617FM-12+1618KABQ V0209999C000012200019N0160001N1+00331-00891102201ADDGF102991999999999999999999KA1120M+00331KA2240N-00501MA1999999084111MD1810081+9999REMSYN092AAXX  02184 72365 32966 20000 10033 21089 38411 40220 58008 91756 333 10033 21050 555 90218;
0195723650230502010010218567+35042-106610FM-15+1620KABQ V0309999C000052200059N0160935N5+00505-00945102055ADDAA101000095GA1025+060965999GD11991+0609659GF102991999999999999999999MA1102105083975REMMET10001/02/10 11:56:02 METAR KABQ 021856Z 00000KT 10SM FEW200 05/M09 A3015 RMK AO2 SLP205 T00501094 (RTD)
0195723650230502010010219567+35042-106610FM-15+1620KABQ V0309999C000052200059N0160935N5+00675-00895101905ADDAA101000095GA1025+060965999GD11991+0609659GF102991999999999999999999MA1102005083885REMMET10001/02/10 12:56:02 METAR KABQ 021956Z 00000KT 10SM FEW200 07/M09 A3012 RMK AO2 SLP190 T00671089 (RTD)
0263723650230502010010220567+35042-106610SY-MT+1620KABQ V0302005N002152200059N0160935N5+00785-00835101785ADDAA101000095GF100991001001999999001001MA1101905083805MD1640284+9999REMSYN076AAXX  02214 72365 32966 02004 10078 21083 38383 40178 56028 92056 555 90221;MET10301/02/10 13:56:02 METAR KABQ 022056Z 20004KT 10SM CLR 08/M08 A3009 RMK AO2 SLP178 T00781083 56028 (RTD)
0161723650230502010010221567+35042-106610FM-15+1620KABQ V0309999C000052200059N0160935N5+00895-00835101725ADDAA101000095GF100991999999999999999999MA1101865083775REMMET09701/02/10 14:56:02 METAR KABQ 022156Z 00000KT 10SM CLR 09/M08 A3008 RMK AO2 SLP172 T00891083 (RTD)
0161723650230502010010222567+35042-106610FM-15+1620KABQ V0309999C000052200059N0160935N5+01005-00785101745ADDAA101000095GF100991999999999999999999MA1101865083775REMMET09701/02/10 15:56:02 METAR KABQ 022256Z 00000KT 10SM CLR 10/M08 A3008 RMK AO2 SLP174 T01001078 (RTD)
0406723650230502010010223567+35042-106610SY-MT+1620KABQ V0303305N006752200059N0160935N5+00895-00725101805ADDAA101000095GA1025+019815999GA2045+076205999GD11991+0198159GD22991+0762059GF104991999999017501999999KA1120M+01001KA2180N-00551MA1101905083805MD1540014+9999OC100885REMSYN098AAXX  03004 72365 32766 43313 10089 21072 38383 40180 55001 92356 333 10100 21055 91017 555 90300;MET12801/02/10 16:56:02 METAR KABQ 022356Z 33013G17KT 10SM FEW065 SCT250 09/M07 A3009 RMK AO2 SLP180 T00891072 10100 20033 55001 (SRS)
0207723650230502010010300567+35042-106610FM-15+1620KABQ V0303405N008252200059N0160935N5+00725-00675101915ADDAA101000095GA1025+076205999GD11991+0762059GF102991999999999999999999MA1101935083825REMMET11201/02/10 17:56:02 METAR KABQ 030056Z 34016KT 10SM FEW250 07/M07 A3010 RMK AO2 PK WND 33026/0039 SLP191 T00721067
0155723650230502010010301567+35042-106610FM-15+1620KABQ V0303505N006252200059N0160935N5+00565-00785102065ADDAA101000095GF100991999999999999999999MA1102035083915REMMET09101/02/10 18:56:02 METAR KABQ 030156Z 35012KT 10SM CLR 06/M08 A3013 RMK AO2 SLP206 T00561078
0278723650230502010010302567+35042-106610SY-MT+1620KABQ V0303505N006752200059N0160935N5+00445-00835102135ADDAA101000095GF100991001001999999001001MA1102105083975MD1340204+9999OC100985REMSYN086AAXX  03034 72365 32966 03513 10044 21083 38400 40213 53020 90256 333 91019 555 90303;MET10001/02/10 19:56:02 METAR KABQ 030256Z 35013G19KT 10SM CLR 04/M08 A3015 RMK AO2 SLP213 T00441083 53020
0184723650230502010010303567+35042-106610FM-15+1620KABQ V0303405N008252200059N0160935N5+00335-01005102205ADDAA101000095GF100991999999999999999999MA1102175084035OC101345REMMET11201/02/10 20:56:02 METAR KABQ 030356Z 34016G26KT 10SM CLR 03/M10 A3017 RMK AO2 PK WND 34028/0333 SLP220 T00331100
0155723650230502010010304567+35042-106610FM-15+1620KABQ V0300105N005152200059N0160935N5+00285-01005102235ADDAA101000095GF100991999999999999999999MA1102275084115REMMET09101/02/10 21:56:02 METAR KABQ 030456Z 01010KT 10SM CLR 03/M10 A3020 RMK AO2 SLP223 T00281100
0311723650230502010010305567+35042-106610SY-MT+1620KABQ V0303405N003152200059N0160935N5+00225-01005102245ADDAA101000095GF100991001001999999001001KA1240M+00891KA2240N-00551MA1102305084145MD1140174+9999REMSYN092AAXX  03064 72365 32966 03406 10022 21100 38417 40224 51017 90556 333 10089 21055 555 90306;MET10901/02/10 22:56:02 METAR KABQ 030556Z 34006KT 10SM CLR 02/M10 A3021 RMK AO2 SLP224 T00221100 10089 20022 51017
0165723650230502010010306567+35042-106610FM-15+1620KABQ V0303305N003152200059N0160935N5+00115-01005102215ADDAA101000095GF100991999999999999999999MA1102305084145REMMET10101/02/10 23:56:02 METAR KABQ 030656Z 33006KT 10SM CLR 01/M10 A3021 RMK AO2 SLP221 T00111100 401001056
0939723650230502010010306596+35042-106610SOD  +1620KABQ V030999999999999999999999999999+99999+99999999999ADDAA124000095AJ100009199999999AN1024000099KA1240M+01005KA2240N-00555MG1084034101734OE11240143134020335OE22240116234020335OE33240026899999995REMSOD75424 HR PRECIPITATION (IN):0.00  24 HR MAX TEMP (F):50 24 HR MAX TEMP TIME (LST):1636 24 HR MIN TEMP (F):22 24 HR MIN TEMP TIME (LST):0438 AVERAGE STATION PRESSURE:24.815 MINIMUM SEA LEVEL PRESSURE:30.04 TIME OF OCCURRENCE:1632 PEAK WIND SPEED (MPH):32  PEAK WIND DIR (DEG):340 PEAK WIND TIME (LST):2033  FASTEST 2MIN SPEED (MPH):26 FASTEST 2MIN DIR (DEG):340 FASTEST 2MIN TIME (LST):2033 AVERAGE WIND SPEED (MPH):6.0  24 HR AVG TEMP (F):36 DEPART FROM NORMAL: +2  HEATING DEGREE DAYS:29  COOLING DEGREE DAYS:0   LATEST DAY MAX TEMP (0700-1900 LST):50  LATEST NIGHT MIN TEMP(1900-0800 LST):22 HOURLY INCREMENTAL PRECIPITATION VALUES (IN):.00 0.00 0.00 0.00 0.00 0.00 0.00 0.00 0.00 0.00 0.00 0.00 0.00 0.00 0.00 0.00 0.00 0.00 0.00 0.00 0.00 0.00 0.00 0.00EQDR01     N7GJS072R02     N7GKS075
0161723650230502010010307567+35042-106610FM-15+1620KABQ V0303405N002652200059N0160935N5+00005-01065102205ADDAA101000095GF100991999999999999999999MA1102305084145REMMET09701/03/10 00:56:02 METAR KABQ 030756Z 34005KT 10SM CLR 00/M11 A3021 RMK AO2 SLP220 T00001106 (CLR)
0264723650230502010010308567+35042-106610SY-MT+1620KABQ V0303605N003152200059N0160935N5-00115-01005102225ADDAA101000095GF100991001001999999001001MA1102305084145MD1540004+9999REMSYN076AAXX  03094 72365 32966 03606 11011 21100 38417 40222 55000 90856 555 90309;MET10401/03/10 01:56:02 METAR KABQ 030856Z 36006KT 10SM CLR M01/M10 A3021 RMK AO2 SLP222 T10111100 55000 (CLR)
0196723650230502010010309567+35042-106610FM-15+1620KABQ V0309999C000052200059N0160935N5-00335-01065102325ADDAA101000095GA1025+060965999GD11991+0609659GF102991999999999999999999MA1102375084205REMMET10101/03/10 02:56:02 METAR KABQ 030956Z 00000KT 10SM FEW200 M03/M11 A3023 RMK AO2 SLP232 T10331106 (CLR)
0162723650230502010010310567+35042-106610FM-15+1620KABQ V0300205N003152200059N0160935N5-00225-01005102275ADDAA101000095GF100991999999999999999999MA1102405084235REMMET09801/03/10 03:56:02 METAR KABQ 031056Z 02006KT 10SM CLR M02/M10 A3024 RMK AO2 SLP227 T10221100 (CLR)
0220723650230502010010311567+35042-106610FM-15+1620KABQ V0300105N004152200059N0160935N5-00225-01005102305ADDAA101000095GF100991999999999999999999KA1999M+00221KA2999N-00331MA1102405084235MD1140074+9999REMMET11601/03/10 04:56:02 METAR KABQ 031156Z 01008KT 10SM CLR M02/M10 A3024 RMK AO2 SLP230 T10221100 10022 21033 51007 (CLR)
0201723650230502010010312004+35033-106617FM-12+1618KABQ V0200101N004112200019N0160001N1-00221-01001102301ADDGA1001+999999999GF100991001001999999001001KA1240M+01001KA2120N-00331MA1999999084261MD1110071+9999REMSYN092AAXX  03124 72365 32966 00108 11022 21100 38426 40230 51007 91156 333 10100 21033 555 90312;
0162723650230502010010312567+35042-106610FM-15+1620KABQ V0300105N002652200059N0160935N5-00285-01005102415ADDAA101000095GF100991999999999999999999MA1102445084265REMMET09801/03/10 05:56:02 METAR KABQ 031256Z 01005KT 10SM CLR M03/M10 A3025 RMK AO2 SLP241 T10281100 (CLR)
0162723650230502010010313567+35042-106610FM-15+1620KABQ V0301005N001552200059N0160935N5-00505-01115102525ADDAA101000095GF100991999999999999999999MA1102475084295REMMET09801/03/10 06:56:02 METAR KABQ 031356Z 10003KT 10SM CLR M05/M11 A3026 RMK AO2 SLP252 T10501111 (CLR)
0182723650230502010010314567+35042-106610FM-15+1620KABQ V0303005N002152200059N0160935N5-00395-00945102595ADDAA101000095GF100991999999999999999999MA1102545084345MD1340144+9999REMMET10401/03/10 07:56:02 METAR KABQ 031456Z 30004KT 10SM CLR M04/M09 A3028 RMK AO2 SLP259 T10391094 53014 (CLR)
0159723650230502010010315004+35033-106617FM-12+1618KABQ V0203001N002112200019N0160001N1-00391-00941102591ADDGA1001+999999999GF100991001001999999001001MA1999999084381MD1310141+9999REMSYN076AAXX  03154 72365 32966 03004 11039 21094 38438 40259 53014 91456 555 90315;
0162723650230502010010315567+35042-106610FM-15+1620KABQ V0303605N003152200059N0160935N5-00065-00945102605ADDAA101000095GF100991999999999999999999MA1102615084405REMMET09801/03/10 08:56:02 METAR KABQ 031556Z 36006KT 10SM CLR M01/M09 A3030 RMK AO2 SLP260 T10061094 (RTD)
0161723650230502010010316567+35042-106610FM-15+1620KABQ V0303505N003152200059N0160935N5+00175-00945102595ADDAA101000095GF100991999999999999999999MA1102615084405REMMET09701/03/10 09:56:02 METAR KABQ 031656Z 35006KT 10SM CLR 02/M09 A3030 RMK AO2 SLP259 T00171094 (RTD)
0317723650230502010010317567+35042-106610SY-MT+1620KABQ V0303405N003652200059N0160935N5+00285-00895102565ADDAA101000095GF100991001001999999001001KA1120M+00281KA2240N-00561MA1102615084405MD1040064+9999REMSYN092AAXX  03184 72365 32966 03407 10028 21089 38443 40256 50006 91756 333 10028 21056 555 90318;MET11501/03/10 10:56:02 METAR KABQ 031756Z 34007KT 10SM CLR 03/M09 A3030 RMK AO2 SLP256 T00281089 10028 21056 50006 (RTD)
0161723650230502010010318567+35042-106610FM-15+1620KABQ V0300105N002652200059N0160935N5+00445-00895102445ADDAA101000095GF100991999999999999999999MA1102515084325REMMET09701/03/10 11:56:02 METAR KABQ 031856Z 01005KT 10SM CLR 04/M09 A3027 RMK AO2 SLP244 T00441089 (RTD)
0161723650230502010010319567+35042-106610FM-15+1620KABQ V0309999C000052200059N0160935N5+00565-00895102365ADDAA101000095GF100991999999999999999999MA1102445084265REMMET09701/03/10 12:56:02 METAR KABQ 031956Z 00000KT 10SM CLR 06/M09 A3025 RMK AO2 SLP236 T00561089 (RTD)
0263723650230502010010320567+35042-106610SY-MT+1620KABQ V0303605N002152200059N0160935N5+00675-00945102325ADDAA101000095GF100991001001999999001001MA1102405084235MD1640204+9999REMSYN076AAXX  03214 72365 32966 03604 10067 21094 38426 40232 56020 92056 555 90321;MET10301/03/10 13:56:02 METAR KABQ 032056Z 36004KT 10SM CLR 07/M09 A3024 RMK AO2 SLP232 T00671094 56020 (RTD)
0161723650230502010010321567+35042-106610FM-15+1620KABQ V0300105N003652200059N0160935N5+00785-00945102355ADDAA101000095GF100991999999999999999999MA1102405084235REMMET09701/03/10 14:56:02 METAR KABQ 032156Z 01007KT 10SM CLR 08/M09 A3024 RMK AO2 SLP235 T00781094 (RTD)
0161723650230502010010322567+35042-106610FM-15+1620KABQ V0303505N002652200059N0160935N5+00725-00945102345ADDAA101000095GF100991999999999999999999MA1102405084235REMMET09701/03/10 15:56:02 METAR KABQ 032256Z 35005KT 10SM CLR 07/M09 A3024 RMK AO2 SLP234 T00721094 (RTD)
0317723650230502010010323567+35042-106610SY-MT+1620KABQ V0303405N005152200059N0160935N5+00615-01115102385ADDAA101000095GF100991001001999999001001KA1120M+00781KA2180N-00321MA1102445084265MD1340024+9999REMSYN092AAXX  04004 72365 32966 03410 10061 21111 38429 40238 53002 92356 333 10078 21032 555 90400;MET11501/03/10 16:56:02 METAR KABQ 032356Z 34010KT 10SM CLR 06/M11 A3025 RMK AO2 SLP238 T00611111 10078 20028 53002 (SRS)
0155723650230502010010400567+35042-106610FM-15+1620KABQ V0300105N004652200059N0160935N5+00445-01115102505ADDAA101000095GF100991999999999999999999MA1102475084295REMMET09101/03/10 17:56:02 METAR KABQ 040056Z 01009KT 10SM CLR 04/M11 A3026 RMK AO2 SLP250 T00441111
0155723650230502010010401567+35042-106610FM-15+1620KABQ V0300105N003152200059N0160935N5+00285-01005102655ADDAA101000095GF100991999999999999999999MA1102545084345REMMET09101/03/10 18:56:02 METAR KABQ 040156Z 01006KT 10SM CLR 03/M10 A3028 RMK AO2 SLP265 T00281100
0291723650230502010010402567+35042-106610SY-MT+1620KABQ V0300105N003152200059N0160935N5+00175-00945102705ADDAA101000095GA1025+076205999GD11991+0762059GF102991999999999999999999MA1102615084405MD1140154+9999REMSYN076AAXX  04034 72365 32966 20106 10017 21094 38443 40270 51015 90256 555 90403;MET10001/03/10 19:56:02 METAR KABQ 040256Z 01006KT 10SM FEW250 02/M09 A3030 RMK AO2 SLP270 T00171094 51015
0189723650230502010010403567+35042-106610FM-15+1620KABQ V0300105N002152200059N0160935N5+00115-00945102645ADDAA101000095GA1025+076205999GD11991+0762059GF102991999999999999999999MA1102615084405REMMET09401/03/10 20:56:02 METAR KABQ 040356Z 01004KT 10SM FEW250 01/M09 A3030 RMK AO2 SLP264 T00111094
0190723650230502010010404567+35042-106610FM-15+1620KABQ V0309999C000052200059N0160935N5-00065-00945102685ADDAA101000095GA1025+076205999GD11991+0762059GF102991999999999999999999MA1102645084435REMMET09501/03/10 21:56:02 METAR KABQ 040456Z 00000KT 10SM FEW250 M01/M09 A3031 RMK AO2 SLP268 T10061094
0346723650230502010010405567+35042-106610SY-MT+1620KABQ V0309999C000052200059N0160935N5-00175-00945102715ADDAA101000095GA1025+076205999GD11991+0762059GF102991999999999999999999KA1240M+00611KA2240N-00331MA1102685084465MD1340074+9999REMSYN092AAXX  04064 72365 32966 20000 11017 21094 38449 40271 53007 90556 333 10061 21033 555 90406;MET11301/03/10 22:56:02 METAR KABQ 040556Z 00000KT 10SM FEW250 M02/M09 A3032 RMK AO2 SLP271 T10171094 10061 21033 53007
0200723650230502010010406567+35042-106610FM-15+1620KABQ V0309999C000052200059N0160935N5-00115-00895102685ADDAA101000095GA1025+076205999GD11991+0762059GF102991999999999999999999MA1102685084465REMMET10501/03/10 23:56:02 METAR KABQ 040656Z 00000KT 10SM FEW250 M01/M09 A3032 RMK AO2 SLP268 T10111089 400781056
0939723650230502010010406596+35042-106610SOD  +1620KABQ V030999999999999999999999999999+99999+99999999999ADDAA124000095AJ100009199999999AN1024000099KA1240M+00785KA2240N-00555MG1084344102174OE11240080536016465OE22240067136016475OE33240024199999995REMSOD75424 HR PRECIPITATION (IN):0.00  24 HR MAX TEMP (F):46 24 HR MAX TEMP TIME (LST):1555 24 HR MIN TEMP (F):22 24 HR MIN TEMP TIME (LST):0715 AVERAGE STATION PRESSURE:24.905 MINIMUM SEA LEVEL PRESSURE:30.17 TIME OF OCCURRENCE:0147 PEAK WIND SPEED (MPH):18  PEAK WIND DIR (DEG):360 PEAK WIND TIME (LST):1646  FASTEST 2MIN SPEED (MPH):15 FASTEST 2MIN DIR (DEG):360 FASTEST 2MIN TIME (LST):1647 AVERAGE WIND SPEED (MPH):5.4  24 HR AVG TEMP (F):34 DEPART FROM NORMAL: 0   HEATING DEGREE DAYS:31  COOLING DEGREE DAYS:0   LATEST DAY MAX TEMP (0700-1900 LST):46  LATEST NIGHT MIN TEMP(1900-0800 LST):22 HOURLY INCREMENTAL PRECIPITATION VALUES (IN):.00 0.00 0.00 0.00 0.00 0.00 0.00 0.00 0.00 0.00 0.00 0.00 0.00 0.00 0.00 0.00 0.00 0.00 0.00 0.00 0.00 0.00 0.00 0.00EQDR01     N7GJS072R02     N7GKS075
0196723650230502010010407567+35042-106610FM-15+1620KABQ V0300405N002652200059N0160935N5-00225-00895102665ADDAA101000095GA1025+076205999GD11991+0762059GF102991999999999999999999MA1102645084435REMMET10101/04/10 00:56:02 METAR KABQ 040756Z 04005KT 10SM FEW250 M02/M09 A3031 RMK AO2 SLP266 T10221089 (RSW)
0216723650230502010010408567+35042-106610FM-15+1620KABQ V0300405N004652200059N0160935N5-00175-00895102625ADDAA101000095GA1025+076205999GD11991+0762059GF102991999999999999999999MA1102685084465MD1540004+9999REMMET10701/04/10 01:56:02 METAR KABQ 040856Z 04009KT 10SM FEW250 M02/M09 A3032 RMK AO2 SLP262 T10171089 55000 (RSW)
0143723650230502010010409004+35033-106617FM-12+1618KABQ V0200401N004612200019N0160001N1-00171-00891102621ADDGF102991999999999999999999MA1999999084491MD1510001+9999REMSYN076AAXX  04094 72365 32966 20409 11017 21089 38449 40262 55000 90856 555 90409;
0162723650230502010010409567+35042-106610FM-15+1620KABQ V0300305N004152200059N0160935N5-00225-00895102655ADDAA101000095GF100991999999999999999999MA1102715084495REMMET09801/04/10 02:56:02 METAR KABQ 040956Z 03008KT 10SM CLR M02/M09 A3033 RMK AO2 SLP265 T10221089 (RSW)
0162723650230502010010410567+35042-106610FM-15+1620KABQ V0300105N003652200059N0160935N5-00335-00895102655ADDAA101000095GF100991999999999999999999MA1102685084465REMMET09801/04/10 03:56:02 METAR KABQ 041056Z 01007KT 10SM CLR M03/M09 A3032 RMK AO2 SLP265 T10331089 (RSW)
0318723650230502010010411567+35042-106610SY-MT+1620KABQ V0303605N003652200059N0160935N5-00285-00945102695ADDAA101000095GF100991001001999999001001KA1240M+00781KA2120N-00391MA1102715084495MD1140024+9999REMSYN092AAXX  04124 72365 32966 03607 11028 21094 38452 40269 51002 91156 333 10078 21039 555 90412;MET11601/04/10 04:56:02 METAR KABQ 041156Z 36007KT 10SM CLR M03/M09 A3033 RMK AO2 SLP269 T10281094 11011 21039 51002 (RSW)
0162723650230502010010412567+35042-106610FM-15+1620KABQ V0300505N002152200059N0160935N5-00395-00945102795ADDAA101000095GF100991999999999999999999MA1102745084525REMMET09801/04/10 05:56:02 METAR KABQ 041256Z 05004KT 10SM CLR M04/M09 A3034 RMK AO2 SLP279 T10391094 (RSW)
0162723650230502010010413567+35042-106610FM-15+1620KABQ V0300205N001552200059N0160935N5-00445-01005102915ADDAA101000095GF100991999999999999999999MA1102815084585REMMET09801/04/10 06:56:02 METAR KABQ 041356Z 02003KT 10SM CLR M04/M10 A3036 RMK AO2 SLP291 T10441100 (RSW)
0264723650230502010010414567+35042-106610SY-MT+1620KABQ V0303505N002152200059N0160935N5-00445-00895102965ADDAA101000095GF100991001001999999001001MA1102845084605MD1140124+9999REMSYN076AAXX  04154 72365 32966 03504 11044 21089 38464 40296 51012 91456 555 90415;MET10401/04/10 07:56:02 METAR KABQ 041456Z 35004KT 10SM CLR M04/M09 A3037 RMK AO2 SLP296 T10441089 51012 (RSW)
0164723650230502010010415567+35042-106610FM-15+1620KABQ V0303305N003652200059N0160935N5-00335-00945103005ADDAA101000095GF100991999999999999999999MA1102885084635REMMET10001/04/10 08:56:02 METAR KABQ 041556Z 33007KT 10SM CLR M03/M09 A3038 RMK AO2 SLP300 T10331094 $ (RSW)
0164723650230502010010416567+35042-106610FM-15+1620KABQ V0303505N004152200059N0160935N5-00065-01005102995ADDAA101000095GF100991999999999999999999MA1102915084665REMMET10001/04/10 09:56:02 METAR KABQ 041656Z 35008KT 10SM CLR M01/M10 A3039 RMK AO2 SLP299 T10061100 $ (RSW)
0318723650230502010010417567+35042-106610SY-MT+1620KABQ V0309999V002652200059N0160935N5+00115-00945102935ADDAA101000095GF100991001001999999001001KA1120M+00111KA2240N-00501MA1102885084635MD1040024+9999REMSYN092AAXX  04184 72365 32966 0//05 10011 21094 38466 40293 50002 91756 333 10011 21050 555 90418;MET11601/04/10 10:56:02 METAR KABQ 041756Z VRB05KT 10SM CLR 01/M09 A3038 RMK AO2 SLP293 T00111094 10011 21050 50002 $ (WT)
0162723650230502010010418567+35042-106610FM-15+1620KABQ V0303005N001552200059N0160935N5+00285-00945102765ADDAA101000095GF100991999999999999999999MA1102745084525REMMET09801/04/10 11:56:02 METAR KABQ 041856Z 30003KT 10SM CLR 03/M09 A3034 RMK AO2 SLP276 T00281094 $ (WT)
0162723650230502010010419567+35042-106610FM-15+1620KABQ V0309999C000052200059N0160935N5+00395-01005102665ADDAA101000095GF100991999999999999999999MA1102645084435REMMET09801/04/10 12:56:02 METAR KABQ 041956Z 00000KT 10SM CLR 04/M10 A3031 RMK AO2 SLP266 T00391100 $ (WT)
0264723650230502010010420567+35042-106610SY-MT+1620KABQ V0303105N003652200059N0160935N5+00565-01005102525ADDAA101000095GF100991001001999999001001MA1102575084375MD1640264+9999REMSYN076AAXX  04214 72365 32966 03107 10056 21100 38440 40252 56026 92056 555 90421;MET10401/04/10 13:56:02 METAR KABQ 042056Z 31007KT 10SM CLR 06/M10 A3029 RMK AO2 SLP252 T00561100 56026 $ (WT)
0162723650230502010010421567+35042-106610FM-15+1620KABQ V0303405V003652200059N0160935N5+00675-01005102505ADDAA101000095GF100991999999999999999999MA1102545084345REMMET09801/04/10 14:56:02 METAR KABQ 042156Z 34007KT 10SM CLR 07/M10 A3028 RMK AO2 SLP250 T00671100 $ (YF)
0162723650230502010010422567+35042-106610FM-15+1620KABQ V0303405N002152200059N0160935N5+00615-01065102475ADDAA101000095GF100991999999999999999999MA1102475084295REMMET09801/04/10 15:56:02 METAR KABQ 042256Z 34004KT 10SM CLR 06/M11 A3026 RMK AO2 SLP247 T00611106 $ (YF)
0254723650230502010010423567+35042-106610FM-15+1620KABQ V0303005N001552200059N0160935N5+00565-01005102465ADDAA101000095GA1025+076205999GD11991+0762059GF102991999999999999999999KA1999M+00671KA2999N+00111MA1102475084295MD1640074+9999REMMET11901/04/10 16:56:02 METAR KABQ 042356Z 30003KT 10SM FEW250 06/M10 A3026 RMK AO2 SLP246 T00561100 10067 20011 56007 $ (YF)
0185723650230502010010500004+35033-106617FM-12+1618KABQ V0203001N001512200019N0160001N1+00561-01001102461ADDGF102991999999999999999999KA1120M+00671KA2180N-00381MA1999999084321MD1610071+9999REMSYN092AAXX  05004 72365 32966 23003 10056 21100 38432 40246 56007 92356 333 10067 21038 555 90500;
0191723650230502010010500567+35042-106610FM-15+1620KABQ V0309999C000052200059N0160935N5+00445-01065102535ADDAA101000095GA1025+076205999GD11991+0762059GF102991999999999999999999MA1102515084325REMMET09601/04/10 17:56:02 METAR KABQ 050056Z 00000KT 10SM FEW250 04/M11 A3027 RMK AO2 SLP253 T00441106 $
0191723650230502010010501567+35042-106610FM-15+1620KABQ V0309999C000052200059N0160935N5+00115-01115102685ADDAA101000095GA1025+076205999GD11991+0762059GF102991999999999999999999MA1102545084345REMMET09601/04/10 18:56:02 METAR KABQ 050156Z 00000KT 10SM FEW250 01/M11 A3028 RMK AO2 SLP268 T00111111 $
0259723650230502010010502567+35042-106610SY-MT+1620KABQ V0303605N002152200059N0160935N5+00115-01005102735ADDAA101000095GF100991001001999999001001MA1102575084375MD1340104+9999REMSYN076AAXX  05034 72365 32966 03604 10011 21100 38440 40273 53010 90256 555 90503;MET09901/04/10 19:56:02 METAR KABQ 050256Z 36004KT 10SM CLR 01/M10 A3029 RMK AO2 SLP273 T00111100 53010 $
0157723650230502010010503567+35042-106610FM-15+1620KABQ V0300105N003152200059N0160935N5+00115-00945102705ADDAA101000095GF100991999999999999999999MA1102575084375REMMET09301/04/10 20:56:02 METAR KABQ 050356Z 01006KT 10SM CLR 01/M09 A3029 RMK AO2 SLP270 T00111094 $
0158723650230502010010504567+35042-106610FM-15+1620KABQ V0309999C000052200059N0160935N5-00115-01005102685ADDAA101000095GF100991999999999999999999MA1102575084375REMMET09401/04/10 21:56:02 METAR KABQ 050456Z 00000KT 10SM CLR M01/M10 A3029 RMK AO2 SLP268 T10111100 $
0347723650230502010010505567+35042-106610SY-MT+1620KABQ V0303605N004152200059N0160935N5+00065-00945102595ADDAA101000095GA1025+076205999GD11991+0762059GF102991999999999999999999KA1240M+00561KA2240N-00391MA1102575084375MD1840024+9999REMSYN092AAXX  05064 72365 32966 23608 10006 21094 38440 40259 58002 90556 333 10056 21039 555 90506;MET11401/04/10 22:56:02 METAR KABQ 050556Z 36008KT 10SM FEW250 01/M09 A3029 RMK AO2 SLP259 T00061094 10056 21022 58002 $
0202723650230502010010506567+35042-106610FM-15+1620KABQ V0303505N003152200059N0160935N5-00065-00945102555ADDAA101000095GA1025+067065999GD11991+0670659GF102991999999999999999999MA1102545084345REMMET10701/04/10 23:56:02 METAR KABQ 050656Z 35006KT 10SM FEW220 M01/M09 A3028 RMK AO2 SLP255 T10061094 400671050 $
0939723650230502010010506596+35042-106610SOD  +1620KABQ V030999999999999999999999999999+99999+99999999999ADDAA124000095AJ100009199999999AN1024000099KA1240M+00675KA2240N-00495MG1084444102444OE11240062635009465OE22240053635009485OE33240024699999995REMSOD75424 HR PRECIPITATION (IN):0.00  24 HR MAX TEMP (F):44 24 HR MAX TEMP TIME (LST):1607 24 HR MIN TEMP (F):23 24 HR MIN TEMP TIME (LST):0725 AVERAGE STATION PRESSURE:24.935 MINIMUM SEA LEVEL PRESSURE:30.25 TIME OF OCCURRENCE:1652 PEAK WIND SPEED (MPH):14  PEAK WIND DIR (DEG):350 PEAK WIND TIME (LST):0946  FASTEST 2MIN SPEED (MPH):12 FASTEST 2MIN DIR (DEG):350 FASTEST 2MIN TIME (LST):0948 AVERAGE WIND SPEED (MPH):5.5  24 HR AVG TEMP (F):34 DEPART FROM NORMAL: -1  HEATING DEGREE DAYS:31  COOLING DEGREE DAYS:0   LATEST DAY MAX TEMP (0700-1900 LST):44  LATEST NIGHT MIN TEMP(1900-0800 LST):23 HOURLY INCREMENTAL PRECIPITATION VALUES (IN):.00 0.00 0.00 0.00 0.00 0.00 0.00 0.00 0.00 0.00 0.00 0.00 0.00 0.00 0.00 0.00 0.00 0.00 0.00 0.00 0.00 0.00 0.00 0.00EQDR01     N7GJS072R02     N7GKS075
0198723650230502010010507567+35042-106610FM-15+1620KABQ V0303205N002652200059N0160935N5-00175-01005102505ADDAA101000095GA1025+060965999GD11991+0609659GF102991999999999999999999MA1102475084295REMMET10301/05/10 00:56:02 METAR KABQ 050756Z 32005KT 10SM FEW200 M02/M10 A3026 RMK AO2 SLP250 T10171100 $ (RSW)
0300723650230502010010508567+35042-106610SY-MT+1620KABQ V0303605N003652200059N0160935N5-00065-00945102455ADDAA101000095GA1025+060965999GD11991+0609659GF102991999999999999999999MA1102515084325MD1540054+9999REMSYN076AAXX  05094 72365 32966 23607 11006 21094 38435 40245 55005 90856 555 90509;MET10901/05/10 01:56:02 METAR KABQ 050856Z 36007KT 10SM FEW200 M01/M09 A3027 RMK AO2 SLP245 T10061094 55005 $ (RSW)
0164723650230502010010509567+35042-106610FM-15+1620KABQ V0303205N003652200059N0160935N5-00225-00945102515ADDAA101000095GF100991999999999999999999MA1102545084345REMMET10001/05/10 02:56:02 METAR KABQ 050956Z 32007KT 10SM CLR M02/M09 A3028 RMK AO2 SLP251 T10221094 $ (RSW)
0198723650230502010010510567+35042-106610FM-15+1620KABQ V0300105N003152200059N0160935N5-00285-00945102475ADDAA101000095GA1025+060965999GD11991+0609659GF102991999999999999999999MA1102475084295REMMET10301/05/10 03:56:02 METAR KABQ 051056Z 01006KT 10SM FEW200 M03/M09 A3026 RMK AO2 SLP247 T10281094 $ (RSW)
0354723650230502010010511567+35042-106610SY-MT+1620KABQ V0302905N002152200059N0160935N5-00445-00945102535ADDAA101000095GA1025+060965999GD11991+0609659GF102991999999999999999999KA1240M+00671KA2120N-00501MA1102515084325MD1840014+9999REMSYN092AAXX  05124 72365 32966 22904 11044 21094 38435 40253 58001 91156 333 10067 21050 555 90512;MET12101/05/10 04:56:02 METAR KABQ 051156Z 29004KT 10SM FEW200 M04/M09 A3027 RMK AO2 SLP253 T10441094 10006 21050 58001 $ (RSW)
0198723650230502010010512567+35042-106610FM-15+1620KABQ V0300205N002152200059N0160935N5-00445-00945102575ADDAA101000095GA1025+060965999GD11991+0609659GF102991999999999999999999MA1102515084325REMMET10301/05/10 05:56:02 METAR KABQ 051256Z 02004KT 10SM FEW200 M04/M09 A3027 RMK AO2 SLP257 T10441094 $ (RSW)
0196723650230502010010513567+35042-106610FM-15+1620KABQ V0303405N002652200059N0160935N5-00445-00945102675ADDAA101000095GA1025+060965999GD11991+0609659GF102991999999999999999999MA1102545084345REMMET10101/05/10 06:56:02 METAR KABQ 051356Z 34005KT 10SM FEW200 M04/M09 A3028 RMK AO2 SLP267 T10441094 (RSW)
0216723650230502010010514567+35042-106610FM-15+1620KABQ V0303605N002652200059N0160935N5-00395-00945102665ADDAA101000095GA1025+076205999GD11991+0762059GF102991999999999999999999MA1102545084345MD1140044+9999REMMET10701/05/10 07:56:02 METAR KABQ 051456Z 36005KT 10SM FEW250 M04/M09 A3028 RMK AO2 SLP266 T10391094 51004 (RSW)
0143723650230502010010515004+35033-106617FM-12+1618KABQ V0203601N002612200019N0160001N1-00391-00941102661ADDGF102991999999999999999999MA1999999084381MD1110041+9999REMSYN076AAXX  05154 72365 32966 23605 11039 21094 38438 40266 51004 91456 555 90515;
0196723650230502010010515567+35042-106610FM-15+1620KABQ V0309999C00005076205MN0160935N5-00285-00895102635ADDAA101000095GA1075+076205999GD13991+0762059GF107991999999999999999999MA1102545084345REMMET10101/05/10 08:56:02 METAR KABQ 051556Z 00000KT 10SM BKN250 M03/M09 A3028 RMK AO2 SLP263 T10281089 (RSW)
0196723650230502010010516567+35042-106610FM-15+1620KABQ V0303105N002152200059N0160935N5-00115-00895102695ADDAA101000095GA1045+076205999GD12991+0762059GF104991999999999999999999MA1102575084375REMMET10101/05/10 09:56:02 METAR KABQ 051656Z 31004KT 10SM SCT250 M01/M09 A3029 RMK AO2 SLP269 T10111089 (RSW)
0350723650230502010010517567+35042-106610SY-MT+1620KABQ V0309999C000052200059N0160935N5+00285-00945102495ADDAA101000095GA1025+076205999GD11991+0762059GF102991999999999999999999KA1120M+00281KA2240N-00501MA1102515084325MD1840044+9999REMSYN092AAXX  05184 72365 32966 20000 10028 21094 38435 40249 58004 91756 333 10028 21050 555 90518;MET11701/05/10 10:56:02 METAR KABQ 051756Z 00000KT 10SM FEW250 03/M09 A3027 RMK AO2 SLP249 T00281094 10028 21050 58004 (WT)
0194723650230502010010518567+35042-106610FM-15+1620KABQ V0309999C000052200059N0160935N5+00505-00945102325ADDAA101000095GA1025+076205999GD11991+0762059GF102991999999999999999999MA1102375084205REMMET09901/05/10 11:56:02 METAR KABQ 051856Z 00000KT 10SM FEW250 05/M09 A3023 RMK AO2 SLP232 T00501094 (WT)
0194723650230502010010519567+35042-106610FM-15+1620KABQ V0309999C000052200059N0160935N5+00615-00945102215ADDAA101000095GA1025+076205999GD11991+0762059GF102991999999999999999999MA1102275084115REMMET09901/05/10 12:56:02 METAR KABQ 051956Z 00000KT 10SM FEW250 06/M09 A3020 RMK AO2 SLP221 T00611094 (WT)
0296723650230502010010520567+35042-106610SY-MT+1620KABQ V0302305N001552200059N0160935N5+00725-01005102055ADDAA101000095GA1025+060965999GD11991+0609659GF102991999999999999999999MA1102175084035MD1640304+9999REMSYN076AAXX  05214 72365 32966 22303 10072 21100 38406 40205 56030 92056 555 90521;MET10501/05/10 13:56:02 METAR KABQ 052056Z 23003KT 10SM FEW200 07/M10 A3017 RMK AO2 SLP205 T00721100 56030 (WT)
0194723650230502010010521567+35042-106610FM-15+1620KABQ V0301705N002152200059N0160935N5+00895-01065102005ADDAA101000095GA1025+060965999GD11991+0609659GF102991999999999999999999MA1102105083975REMMET09901/05/10 14:56:02 METAR KABQ 052156Z 17004KT 10SM FEW200 09/M11 A3015 RMK AO2 SLP200 T00891106 (WT)
0194723650230502010010522567+35042-106610FM-15+1620KABQ V0301805N003152200059N0160935N5+00895-01175101975ADDAA101000095GA1025+054865999GD11991+0548659GF102991999999999999999999MA1102075083945REMMET09901/05/10 15:56:02 METAR KABQ 052256Z 18006KT 10SM FEW180 09/M12 A3014 RMK AO2 SLP197 T00891117 (WT)
0252723650230502010010523567+35042-106610FM-15+1620KABQ V0301805N002652200059N0160935N5+00675-01115102045ADDAA101000095GA1025+051825999GD11991+0518259GF102991999999999999999999KA1999M+00891KA2999N+00221MA1102035083915MD1640094+9999REMMET11701/05/10 16:56:02 METAR KABQ 052356Z 18005KT 10SM FEW170 07/M11 A3013 RMK AO2 SLP204 T00671111 10089 20022 56009 (WT)
0185723650230502010010600004+35033-106617FM-12+1618KABQ V0201801N002612200019N0160001N1+00671-01111102041ADDGF102991999999999999999999KA1120M+00891KA2180N-00491MA1999999083941MD1610091+9999REMSYN092AAXX  06004 72365 32966 21805 10067 21111 38394 40204 56009 92356 333 10089 21049 555 90600;
0189723650230502010010600567+35042-106610FM-15+1620KABQ V0301605N001552200059N0160935N5+00565-01065102055ADDAA101000095GA1025+051825999GD11991+0518259GF102991999999999999999999MA1102035083915REMMET09401/05/10 17:56:02 METAR KABQ 060056Z 16003KT 10SM FEW170 06/M11 A3013 RMK AO2 SLP205 T00561106
0189723650230502010010601567+35042-106610FM-15+1620KABQ V0301505N001552200059N0160935N5+00225-01115102175ADDAA101000095GA1025+045725999GD11991+0457259GF102991999999999999999999MA1102075083945REMMET09401/05/10 18:56:02 METAR KABQ 060156Z 15003KT 10SM FEW150 02/M11 A3014 RMK AO2 SLP217 T00221111
0209723650230502010010602567+35042-106610FM-15+1620KABQ V0309999C000052200059N0160935N5+00065-01175102205ADDAA101000095GA1025+045725999GD11991+0457259GF102991999999999999999999MA1102105083975MD1340044+9999REMMET10001/05/10 19:56:02 METAR KABQ 060256Z 00000KT 10SM FEW150 01/M12 A3015 RMK AO2 SLP220 T00061117 53004
0143723650230502010010603004+35033-106617FM-12+1618KABQ V0209999C000012200019N0160001N1+00061-01171102201ADDGF102991999999999999999999MA1999999084001MD1310041+9999REMSYN076AAXX  06034 72365 32966 20000 10006 21117 38400 40220 53004 90256 555 90603;
0190723650230502010010603567+35042-106610FM-15+1620KABQ V0301105N001552200059N0160935N5-00065-01175102205ADDAA101000095GA1025+045725999GD11991+0457259GF102991999999999999999999MA1102105083975REMMET09501/05/10 20:56:02 METAR KABQ 060356Z 11003KT 10SM FEW150 M01/M12 A3015 RMK AO2 SLP220 T10061117
0189723650230502010010604567+35042-106610FM-15+1620KABQ V0301305N002152200059N0160935N5+00005-01065102175ADDAA101000095GA1025+045725999GD11991+0457259GF102991999999999999999999MA1102105083975REMMET09401/05/10 21:56:02 METAR KABQ 060456Z 13004KT 10SM FEW150 00/M11 A3015 RMK AO2 SLP217 T00001106
0286723650230502010010605567+35042-106610FM-15+1620KABQ V0309999C000052200059N0160935N5-00065-01065102065ADDAA101000095GA1025+045725999GA2045+076205999GD11991+0457259GD22991+0762059GF104991999999999999999999KA1999M+00671KA2999N-00171MA1102075083945MD1840024+9999REMMET12001/05/10 22:56:02 METAR KABQ 060556Z 00000KT 10SM FEW150 SCT250 M01/M11 A3014 RMK AO2 SLP206 T10061106 10067 21017 58002
0185723650230502010010606004+35033-106617FM-12+1618KABQ V0209999C000012200019N0160001N1-00061-01061102061ADDGF104991999999999999999999KA1240M+00671KA2240N-00501MA1999999083971MD1810021+9999REMSYN092AAXX  06064 72365 32966 40000 11006 21106 38397 40206 58002 90556 333 10067 21050 555 90606;
0237723650230502010010606567+35042-106610FM-15+1620KABQ V0309999C000052200059N0160935N5+00005-01065101955ADDAA101000095GA1025+042675999GA2045+076205999GD11991+0426759GD22991+0762059GF104991999999999999999999MA1102035083915REMMET11101/05/10 23:56:02 METAR KABQ 060656Z 00000KT 10SM FEW140 SCT250 00/M11 A3013 RMK AO2 SLP195 T00001106 400891050
0939723650230502010010606596+35042-106610SOD  +1620KABQ V030999999999999999999999999999+99999+99999999999ADDAA124000095AJ100009199999999AN1024000099KA1240M+00895KA2240N-00495MG1084124101934OE11240062636000105OE22240044736000145OE33240016599999995REMSOD75424 HR PRECIPITATION (IN):0.00  24 HR MAX TEMP (F):48 24 HR MAX TEMP TIME (LST):1606 24 HR MIN TEMP (F):23 24 HR MIN TEMP TIME (LST):0708 AVERAGE STATION PRESSURE:24.840 MINIMUM SEA LEVEL PRESSURE:30.10 TIME OF OCCURRENCE:2358 PEAK WIND SPEED (MPH):14  PEAK WIND DIR (DEG):360 PEAK WIND TIME (LST):0010  FASTEST 2MIN SPEED (MPH):10 FASTEST 2MIN DIR (DEG):360 FASTEST 2MIN TIME (LST):0014 AVERAGE WIND SPEED (MPH):3.7  24 HR AVG TEMP (F):36 DEPART FROM NORMAL: +1  HEATING DEGREE DAYS:29  COOLING DEGREE DAYS:0   LATEST DAY MAX TEMP (0700-1900 LST):48  LATEST NIGHT MIN TEMP(1900-0800 LST):23 HOURLY INCREMENTAL PRECIPITATION VALUES (IN):.00 0.00 0.00 0.00 0.00 0.00 0.00 0.00 0.00 0.00 0.00 0.00 0.00 0.00 0.00 0.00 0.00 0.00 0.00 0.00 0.00 0.00 0.00 0.00EQDR01     N7GJS072R02     N7GKS075
0234723650230502010010607567+35042-106610FM-15+1620KABQ V0303305N001552200059N0160935N5-00065-01065101915ADDAA101000095GA1025+039625999GA2045+076205999GD11991+0396259GD22991+0762059GF104991999999999999999999MA1102005083885REMMET10801/06/10 00:56:02 METAR KABQ 060756Z 33003KT 10SM FEW130 SCT250 M01/M11 A3012 RMK AO2 SLP191 T10061106 (CLR)
0253723650230502010010608567+35042-106610FM-15+1620KABQ V0300105N002152200059N0160935N5+00005-00945101865ADDAA101000095GA1025+039625999GA2045+076205999GD11991+0396259GD22991+0762059GF104991999999999999999999MA1102005083885MD1540064+9999REMMET11301/06/10 01:56:02 METAR KABQ 060856Z 01004KT 10SM FEW130 SCT250 00/M09 A3012 RMK AO2 SLP186 T00001094 55006 (CLR)
0143723650230502010010609004+35033-106617FM-12+1618KABQ V0200101N002112200019N0160001N1+00001-00941101861ADDGF104991999999999999999999MA1999999083911MD1510061+9999REMSYN076AAXX  06094 72365 32966 40104 10000 21094 38391 40186 55006 90856 555 90609;
0234723650230502010010609567+35042-106610FM-15+1620KABQ V0303305N001552200059N0160935N5-00065-01005101845ADDAA101000095GA1025+039625999GA2045+067065999GD11991+0396259GD22991+0670659GF104991999999999999999999MA1102005083885REMMET10801/06/10 02:56:02 METAR KABQ 060956Z 33003KT 10SM FEW130 SCT220 M01/M10 A3012 RMK AO2 SLP184 T10061100 (CLR)
0234723650230502010010610567+35042-106610FM-15+1620KABQ V0309999C000052200059N0160935N5-00225-01005101855ADDAA101000095GA1025+039625999GA2045+060965999GD11991+0396259GD22991+0609659GF104991999999999999999999MA1101965083855REMMET10801/06/10 03:56:02 METAR KABQ 061056Z 00000KT 10SM FEW130 SCT200 M02/M10 A3011 RMK AO2 SLP185 T10221100 (CLR)
0318723650230502010010611567+35042-106610SY-MT+1620KABQ V0309999C000052200059N0160935N5-00335-01005101905ADDAA101000095GF100991001001999999001001KA1240M+00891KA2120N-00441MA1101935083825MD1840054+9999REMSYN092AAXX  06124 72365 32966 00000 11033 21100 38385 40190 58005 91156 333 10089 21044 555 90612;MET11601/06/10 04:56:02 METAR KABQ 061156Z 00000KT 10SM CLR M03/M10 A3010 RMK AO2 SLP190 T10331100 10006 21044 58005 (CLR)
0196723650230502010010612567+35042-106610FM-15+1620KABQ V0309999C000052200059N0160935N5-00225-00945101935ADDAA101000095GA1025+060965999GD11991+0609659GF102991999999999999999999MA1101965083855REMMET10101/06/10 05:56:02 METAR KABQ 061256Z 00000KT 10SM FEW200 M02/M09 A3011 RMK AO2 SLP193 T10221094 (CLR)
0233723650230502010010613567+35042-106610FM-15+1620KABQ V0309999C000052200059N0160935N5-00445-01005102085ADDAA101000095GA1025+039625999GA2045+076205999GD11991+0396259GD22991+0762059GF104991999999999999999999MA1102005083885REMMET10701/06/10 06:56:02 METAR KABQ 061356Z 00000KT 10SM FEW130 SCT250 M04/M10 A3012 RMK AO2 SLP208 T10441100 (WT)
0215723650230502010010614567+35042-106610FM-15+1620KABQ V0301805N002152200059N0160935N5-00395-00895102145ADDAA101000095GA1025+045725999GD11991+0457259GF102991999999999999999999MA1102035083915MD1340084+9999REMMET10601/06/10 07:56:02 METAR KABQ 061456Z 18004KT 10SM FEW150 M04/M09 A3013 RMK AO2 SLP214 T10391089 53008 (WT)
0143723650230502010010615004+35033-106617FM-12+1618KABQ V0201801N002112200019N0160001N1-00391-00891102141ADDGF102991999999999999999999MA1999999083941MD1310081+9999REMSYN076AAXX  06154 72365 32966 21804 11039 21089 38394 40214 53008 91456 555 90615;
0195723650230502010010615567+35042-106610FM-15+1620KABQ V0301405N001552200059N0160935N5-00065-00835102125ADDAA101000095GA1025+060965999GD11991+0609659GF102991999999999999999999MA1102075083945REMMET10001/06/10 08:56:02 METAR KABQ 061556Z 14003KT 10SM FEW200 M01/M08 A3014 RMK AO2 SLP212 T10061083 (WT)
0194723650230502010010616567+35042-106610FM-15+1620KABQ V0309999C000052200059N0160935N5+00285-00945102075ADDAA101000095GA1025+076205999GD11991+0762059GF102991999999999999999999MA1102105083975REMMET09901/06/10 09:56:02 METAR KABQ 061656Z 00000KT 10SM FEW250 03/M09 A3015 RMK AO2 SLP207 T00281094 (WT)
0350723650230502010010617567+35042-106610SY-MT+1620KABQ V0302905N001552200059N0160935N5+00565-00945101965ADDAA101000095GA1025+076205999GD11991+0762059GF102991999999999999999999KA1120M+00611KA2240N-00501MA1102035083915MD1040014+9999REMSYN092AAXX  06184 72365 32966 22903 10056 21094 38394 40196 50001 91756 333 10061 21050 555 90618;MET11701/06/10 10:56:02 METAR KABQ 061756Z 29003KT 10SM FEW250 06/M09 A3013 RMK AO2 SLP196 T00561094 10061 21050 50001 (WT)
0194723650230502010010618567+35042-106610FM-15+1620KABQ V0309999V001552200059N0160935N5+00725-01005101765ADDAA101000095GA1025+076205999GD11991+0762059GF102991999999999999999999MA1101905083805REMMET09901/06/10 11:56:02 METAR KABQ 061856Z VRB03KT 10SM FEW250 07/M10 A3009 RMK AO2 SLP176 T00721100 (WT)
0160723650230502010010619567+35042-106610FM-15+1620KABQ V0302405N001552200059N0160935N5+00725-00945101685ADDAA101000095GF100991999999999999999999MA1101795083715REMMET09601/06/10 12:56:02 METAR KABQ 061956Z 24003KT 10SM CLR 07/M09 A3006 RMK AO2 SLP168 T00721094 (WT)
0296723650230502010010620567+35042-106610SY-MT+1620KABQ V0309999C000052200059N0160935N5+00945-00945101525ADDAA101000095GA1025+076205999GD11991+0762059GF102991999999999999999999MA1101695083625MD1640284+9999REMSYN076AAXX  06214 72365 32966 20000 10094 21094 38365 40152 56028 92056 555 90621;MET10501/06/10 13:56:02 METAR KABQ 062056Z 00000KT 10SM FEW250 09/M09 A3003 RMK AO2 SLP152 T00941094 56028 (WT)
0194723650230502010010621567+35042-106610FM-15+1620KABQ V0303205N002152200059N0160935N5+01065-00895101485ADDAA101000095GA1025+076205999GD11991+0762059GF102991999999999999999999MA1101665083595REMMET09901/06/10 14:56:02 METAR KABQ 062156Z 32004KT 10SM FEW250 11/M09 A3002 RMK AO2 SLP148 T01061089 (WT)
0194723650230502010010622567+35042-106610FM-15+1620KABQ V0303105N003652200059N0160935N5+01175-00785101485ADDAA101000095GA1025+076205999GD11991+0762059GF102991999999999999999999MA1101665083595REMMET09901/06/10 15:56:02 METAR KABQ 062256Z 31007KT 10SM FEW250 12/M08 A3002 RMK AO2 SLP148 T01171078 (WT)
0253723650230502010010623567+35042-106610FM-15+1620KABQ V0303305N004152200059N0160935N5+01005-00675101585ADDAA101000095GA1025+076205999GD11991+0762059GF102991999999999999999999KA1999M+01171KA2999N+00561MA1101695083625MD1540014+9999REMMET11801/06/10 16:56:02 METAR KABQ 062356Z 33008KT 10SM FEW250 10/M07 A3003 RMK AO2 SLP158 T01001067 10117 20056 55001 (RSW)
0185723650230502010010700004+35033-106617FM-12+1618KABQ V0203301N004112200019N0160001N1+01001-00671101581ADDGF102991999999999999999999KA1120M+01171KA2180N-00431MA1999999083651MD1510011+9999REMSYN092AAXX  07004 72365 32966 23308 10100 21067 38365 40158 55001 92356 333 10117 21043 555 90700;
0189723650230502010010700567+35042-106610FM-15+1620KABQ V0300105N006752200059N0160935N5+00785-00675101665ADDAA101000095GA1045+076205999GD12991+0762059GF104991999999999999999999MA1101765083685REMMET09401/06/10 17:56:02 METAR KABQ 070056Z 01013KT 10SM SCT250 08/M07 A3005 RMK AO2 SLP166 T00781067
0189723650230502010010701567+35042-106610FM-15+1620KABQ V0300105N007752200059N0160935N5+00615-00675101835ADDAA101000095GA1045+076205999GD12991+0762059GF104991999999999999999999MA1101835083745REMMET09401/06/10 18:56:02 METAR KABQ 070156Z 01015KT 10SM SCT250 06/M07 A3007 RMK AO2 SLP183 T00611067
0209723650230502010010702567+35042-106610FM-15+1620KABQ V0300105N005752200059N0160935N5+00565-00675101835ADDAA101000095GA1045+076205999GD12991+0762059GF104991999999999999999999MA1101835083745MD1140134+9999REMMET10001/06/10 19:56:02 METAR KABQ 070256Z 01011KT 10SM SCT250 06/M07 A3007 RMK AO2 SLP183 T00561067 51013
0143723650230502010010703004+35033-106617FM-12+1618KABQ V0200101N005712200019N0160001N1+00561-00671101831ADDGF104991999999999999999999MA1999999083771MD1110131+9999REMSYN076AAXX  07034 72365 32966 40111 10056 21067 38377 40183 51013 90256 555 90703;
0189723650230502010010703567+35042-106610FM-15+1620KABQ V0300205N005752200059N0160935N5+00445-00725101815ADDAA101000095GA1025+076205999GD11991+0762059GF102991999999999999999999MA1101865083775REMMET09401/06/10 20:56:02 METAR KABQ 070356Z 02011KT 10SM FEW250 04/M07 A3008 RMK AO2 SLP181 T00441072
0189723650230502010010704567+35042-106610FM-15+1620KABQ V0303305N002152200059N0160935N5+00395-00725101825ADDAA101000095GA1025+076205999GD11991+0762059GF102991999999999999999999MA1101935083825REMMET09401/06/10 21:56:02 METAR KABQ 070456Z 33004KT 10SM FEW250 04/M07 A3010 RMK AO2 SLP182 T00391072
0345723650230502010010705567+35042-106610SY-MT+1620KABQ V0309999C000052200059N0160935N5+00285-00725101835ADDAA101000095GA1025+076205999GD11991+0762059GF102991999999999999999999KA1240M+01001KA2240N-00431MA1102005083885MD1340134+9999REMSYN092AAXX  07064 72365 32966 20000 10028 21072 38391 40183 53013 90556 333 10100 21043 555 90706;MET11201/06/10 22:56:02 METAR KABQ 070556Z 00000KT 10SM FEW250 03/M07 A3012 RMK AO2 SLP183 T00281072 10100 20028 53013
0199723650230502010010706567+35042-106610FM-15+1620KABQ V0300105N003652200059N0160935N5+00175-00785101765ADDAA101000095GA1025+076205999GD11991+0762059GF102991999999999999999999MA1101935083825REMMET10401/06/10 23:56:02 METAR KABQ 070656Z 01007KT 10SM FEW250 02/M08 A3010 RMK AO2 SLP176 T00171078 401171050
0939723650230502010010706596+35042-106610SOD  +1620KABQ V030999999999999999999999999999+99999+99999999999ADDAA124000095AJ100009199999999AN1024000099KA1240M+01175KA2240N-00495MG1083814101424OE11240098301019015OE22240076001019025OE33240022899999995REMSOD75424 HR PRECIPITATION (IN):0.00  24 HR MAX TEMP (F):53 24 HR MAX TEMP TIME (LST):1613 24 HR MIN TEMP (F):23 24 HR MIN TEMP TIME (LST):0737 AVERAGE STATION PRESSURE:24.750 MINIMUM SEA LEVEL PRESSURE:29.95 TIME OF OCCURRENCE:1512 PEAK WIND SPEED (MPH):22  PEAK WIND DIR (DEG):10  PEAK WIND TIME (LST):1901  FASTEST 2MIN SPEED (MPH):17 FASTEST 2MIN DIR (DEG):10  FASTEST 2MIN TIME (LST):1902 AVERAGE WIND SPEED (MPH):5.1  24 HR AVG TEMP (F):38 DEPART FROM NORMAL: +3  HEATING DEGREE DAYS:27  COOLING DEGREE DAYS:0   LATEST DAY MAX TEMP (0700-1900 LST):53  LATEST NIGHT MIN TEMP(1900-0800 LST):23 HOURLY INCREMENTAL PRECIPITATION VALUES (IN):.00 0.00 0.00 0.00 0.00 0.00 0.00 0.00 0.00 0.00 0.00 0.00 0.00 0.00 0.00 0.00 0.00 0.00 0.00 0.00 0.00 0.00 0.00 0.00EQDR01     N7GJS072R02     N7GKS075
0195723650230502010010707567+35042-106610FM-15+1620KABQ V0309999C000052200059N0160935N5+00005-00835101775ADDAA101000095GA1025+076205999GD11991+0762059GF102991999999999999999999MA1101905083805REMMET10001/07/10 00:56:02 METAR KABQ 070756Z 00000KT 10SM FEW250 00/M08 A3009 RMK AO2 SLP177 T00001083 (RSW)
0297723650230502010010708567+35042-106610SY-MT+1620KABQ V0300205N001552200059N0160935N5+00005-00785101755ADDAA101000095GA1025+076205999GD11991+0762059GF102991999999999999999999MA1101935083825MD1540054+9999REMSYN076AAXX  07094 72365 32966 20203 10000 21078 38385 40175 55005 90856 555 90709;MET10601/07/10 01:56:02 METAR KABQ 070856Z 02003KT 10SM FEW250 00/M08 A3010 RMK AO2 SLP175 T00001078 55005 (RSW)
0196723650230502010010709567+35042-106610FM-15+1620KABQ V0303505N002652200059N0160935N5-00175-00725101835ADDAA101000095GA1025+076205999GD11991+0762059GF102991999999999999999999MA1102005083885REMMET10101/07/10 02:56:02 METAR KABQ 070956Z 35005KT 10SM FEW250 M02/M07 A3012 RMK AO2 SLP183 T10171072 (CLR)
0196723650230502010010710567+35042-106610FM-15+1620KABQ V0303505N003652200059N0160935N5-00285-00675101855ADDAA101000095GA1025+076205999GD11991+0762059GF102991999999999999999999MA1102005083885REMMET10101/07/10 03:56:02 METAR KABQ 071056Z 35007KT 10SM FEW250 M03/M07 A3012 RMK AO2 SLP185 T10281067 (CLR)
0254723650230502010010711567+35042-106610FM-15+1620KABQ V0303605N003652200059N0160935N5-00335-00675101925ADDAA101000095GA1025+076205999GD11991+0762059GF102991999999999999999999KA1999M+00331KA2999N-00331MA1102035083915MD1140084+9999REMMET11901/07/10 04:56:02 METAR KABQ 071156Z 36007KT 10SM FEW250 M03/M07 A3013 RMK AO2 SLP192 T10331067 10033 21033 51008 (CLR)
0185723650230502010010712004+35033-106617FM-12+1618KABQ V0203601N003612200019N0160001N1-00331-00671101921ADDGF102991999999999999999999KA1240M+01171KA2120N-00331MA1999999083941MD1110081+9999REMSYN092AAXX  07124 72365 32966 23607 11033 21067 38394 40192 51008 91156 333 10117 21033 555 90712;
0196723650230502010010712567+35042-106610FM-15+1620KABQ V0303405N003152200059N0160935N5-00335-00725102035ADDAA101000095GA1025+067065999GD11991+0670659GF102991999999999999999999MA1102075083945REMMET10101/07/10 05:56:02 METAR KABQ 071256Z 34006KT 10SM FEW220 M03/M07 A3014 RMK AO2 SLP203 T10331072 (CLR)
0234723650230502010010713567+35042-106610FM-15+1620KABQ V0303505N002652200059N0160935N5-00395-00725102165ADDAA101000095GA1025+021345999GA2045+060965999GD11991+0213459GD22991+0609659GF104991999999999999999999MA1102175084035REMMET10801/07/10 06:56:02 METAR KABQ 071356Z 35005KT 10SM FEW070 SCT200 M04/M07 A3017 RMK AO2 SLP216 T10391072 (CLR)
0332723650230502010010714567+35042-106610FM-15+1620KABQ V0303405N00265060965MN0160935N5-00395-00785102265ADDAA101000095GA1025+016765999GA2045+019815999GA3075+060965999GD11991+0167659GD22991+0198159GD33991+0609659GD44991+0750019GF108991999999999999999999MA1102245084085MD1340204+9999REMMET14601/07/10 07:56:02 METAR KABQ 071456Z 34005KT 10SM FEW055 SCT065 BKN200 M04/M08 A3019 RMK AO2 SLP226 MTN TOPS OBSC NE ACSL SE T10391078 53020 (CLR)
0143723650230502010010715004+35033-106617FM-12+1618KABQ V0203401N002619999999N0160001N1-00391-00781102261ADDGF108991999999017501999999MA1999999084111MD1310201+9999REMSYN076AAXX  07154 72365 32766 83405 11039 21078 38411 40226 53020 91456 555 90715;
0288723650230502010010715567+35042-106610FM-15+1620KABQ V0303305N00265060965MN0160935N5-00285-00785102325ADDAA101000095GA1025+013725999GA2045+039625999GA3075+060965999GD11991+0137259GD22991+0396259GD33991+0609659GF107991999999999999999999MA1102305084145REMMET13101/07/10 08:56:02 METAR KABQ 071556Z 33005KT 10SM FEW045 SCT130 BKN200 M03/M08 A3021 RMK AO2 SLP232 MTN TOP OBSC NE T10281078 (SRS)
0311723650230502010010716567+35042-106610FM-15+1620KABQ V0303205N00215039625MN0160935N5-00175-00835102415ADDAA101000095GA1025+012195999GA2045+018295999GA3075+039625999GD11991+0121959GD22991+0182959GD33991+0396259GD43991+0600019GF107991999999999999999999MA1102405084235REMMET13901/07/10 09:56:02 METAR KABQ 071656Z 32004KT 10SM FEW040 SCT060 BKN130 M02/M08 A3024 RMK AO2 SLP241 MTN TOPS OBSC NE AND SE T10171083 (SRS)
0471723650230502010010717567+35042-106610SY-MT+1620KABQ V0300705N00675018295MN0160935N5+00005-00945102385ADDAA101000095GA1025+013725999GA2075+018295999GA3075+039625999GD11991+0137259GD23991+0182959GD33991+0396259GD43991+0600019GF106991999999012501999999KA1120M+00331KA2240N-00391MA1102405084235MD1040124+9999REMSYN092AAXX  07184 72365 32666 60713 10000 21094 38426 40238 50012 91756 333 10033 21039 555 90718;MET16101/07/10 10:56:02 METAR KABQ 071756Z 07013KT 10SM FEW045 BKN060 BKN130 00/M09 A3024 RMK AO2 SLP238 MTN TOP OBSC NE ACSL DSNT SE T00001094 10000 21039 50012 (SRS)
0302723650230502010010718567+35042-106610FM-15+1620KABQ V0300805N00885018295MN0160935N5+00065-01005102285ADDAA101000095GA1025+013725999GA2075+018295999GA3075+045725999GD11991+0137259GD23991+0182959GD33991+0457259GD43991+0750019GF107991999999999999999999MA1102275084115REMMET13001/07/10 11:56:02 METAR KABQ 071856Z 08017KT 10SM FEW045 BKN060 BKN150 01/M10 A3020 RMK AO2 SLP228 MTN TOP OBSC NE T00061100 (SRS)
0302723650230502010010719567+35042-106610FM-15+1620KABQ V0300805N00775019815MN0160935N5+00115-01005102195ADDAA101000095GA1025+015245999GA2075+019815999GA3075+039625999GD11991+0152459GD23991+0198159GD33991+0396259GD43991+0660019GF107991999999999999999999MA1102175084035REMMET13001/07/10 12:56:02 METAR KABQ 071956Z 08015KT 10SM FEW050 BKN065 BKN130 01/M10 A3017 RMK AO2 SLP219 MTN TOPS OBSC NE T00111100 (WT)
0414723650230502010010720567+35042-106610SY-MT+1620KABQ V0300705N004150660059N0160935N5+00225-00945102135ADDAA101000095GA1025+018295999GA2045+025915999GA3045+039625999GD11991+0182959GD22991+0259159GD32991+0396259GD43991+0660019GF106991999999017501999999MA1102135084005MD1640224+9999REMSYN076AAXX  07214 72365 32766 60708 10022 21094 38403 40213 56022 92056 555 90721;MET12701/07/10 13:56:02 METAR KABQ 072056Z 07008KT 10SM FEW060 SCT085 SCT130 02/M09 A3016 RMK AO2 SLP213 SCSL SE T00221094 56022 (WT)EQDP01 220003SCOCIG
0240723650230502010010721567+35042-106610FM-15+1620KABQ V0300705N00265067065MN0160935N5+00225-00945102135ADDAA101000095GA1045+019815999GA2075+067065999GD12991+0198159GD23991+0670659GF107991999999999999999999MA1102105083975REMMET11401/07/10 14:56:02 METAR KABQ 072156Z 07005KT 10SM SCT065 BKN220 02/M09 A3015 RMK AO2 SLP213 SCSL SE T00221094 (WT)
0232723650230502010010722567+35042-106610FM-15+1620KABQ V0300705N00315060965MN0160935N5+00225-00895102165ADDAA101000095GA1045+018295999GA2075+060965999GD12991+0182959GD23991+0609659GF107991999999999999999999MA1102135084005REMMET10601/07/10 15:56:02 METAR KABQ 072256Z 07006KT 10SM SCT060 BKN200 02/M09 A3016 RMK AO2 SLP216 T00221089 (WT)
0360723650230502010010723567+35042-106610FM-15+1620KABQ V0309999V00215045725MN0160935N5+00175-00895102235ADDAA101000095GA1025+015245999GA2045+019815999GA3075+045725999GD11991+0152459GD22991+0198159GD33991+0457259GD44991+0600019GF108991999999999999999999KA1999M+00281KA2999N-00061MA1102175084035MD1340034+9999REMMET14801/07/10 16:56:02 METAR KABQ 072356Z VRB04KT 10SM FEW050 SCT065 BKN150 02/M09 A3017 RMK AO2 SLP223 MTN TOPS OBSC NE T00171089 10028 21006 53003 (WT)
0185723650230502010010800004+35033-106617FM-12+1618KABQ V02099999999999999999N0160001N1+00171-00891102231ADDGF108991999999017501999999KA1120M+00281KA2180N-00331MA1999999084061MD1310031+9999REMSYN092AAXX  08004 72365 32766 8//04 10017 21089 38406 40223 53003 92356 333 10028 21033 555 90800;
0282723650230502010010800567+35042-106610FM-15+1620KABQ V0300205N00415042675MN0160935N5+00005-00945102345ADDAA101000095GA1025+015245999GA2075+042675999GA3085+060965999GD11991+0152459GD23991+0426759GD34991+0609659GF108991999999999999999999MA1102245084085REMMET12501/07/10 17:56:02 METAR KABQ 080056Z 02008KT 10SM FEW050 BKN140 OVC200 00/M09 A3019 RMK AO2 SLP234 MTN TOPS OBSC NE T00001094
0241723650230502010010801567+35042-106610FM-15+1620KABQ V0300105N00365014335MN0160935N5-00115-01065102425ADDAA101000095GA1075+014335999GA2085+045725999GD13991+0143359GD24991+0457259GF108991999999999999999999MA1102275084115REMMET11501/07/10 18:56:02 METAR KABQ 080156Z 01007KT 10SM BKN047 OVC150 M01/M11 A3020 RMK AO2 SLP242 MTNS OBSC NE T10111106
0381723650230502010010802567+35042-106610SY-MT+1620KABQ V0300105N00265014335MN0160935N5-00225-01175102525ADDAA101000095GA1075+014335999GA2075+018295999GA3085+054865999GD13991+0143359GD23991+0182959GD34991+0548659GF108991999999012501999999MA1102345084175MD1340154+9999REMSYN076AAXX  08034 72365 32666 80105 11022 21117 38420 40252 53015 90256 555 90803;MET12801/07/10 19:56:02 METAR KABQ 080256Z 01005KT 10SM BKN047 BKN060 OVC180 M02/M12 A3022 RMK AO2 SLP252 MTNS OBSC NE T10221117 53015
0279723650230502010010803567+35042-106610FM-15+1620KABQ V0300205N00155018295MN0160935N5-00335-01225102555ADDAA101000095GA1045+013725999GA2075+018295999GA3075+045725999GD12991+0137259GD23991+0182959GD33991+0457259GF107991999999999999999999MA1102375084205REMMET12201/07/10 20:56:02 METAR KABQ 080356Z 02003KT 10SM SCT045 BKN060 BKN150 M03/M12 A3023 RMK AO2 SLP255 MTNS OBSC NE T10331122
0279723650230502010010804567+35042-106610FM-15+1620KABQ V0309999V00215045725MN0160935N5-00395-01285102605ADDAA101000095GA1025+013725999GA2045+018295999GA3075+045725999GD11991+0137259GD22991+0182959GD33991+0457259GF107991999999999999999999MA1102405084235REMMET12201/07/10 21:56:02 METAR KABQ 080456Z VRB04KT 10SM FEW045 SCT060 BKN150 M04/M13 A3024 RMK AO2 SLP260 MTNS OBSC NE T10391128
0435723650230502010010805567+35042-106610SY-MT+1620KABQ V0303405N00265045725MN0160935N5-00445-01335102645ADDAA101000095GA1025+014945999GA2045+021345999GA3075+045725999GD11991+0149459GD22991+0213459GD33991+0457259GF106991999999012501999999KA1240M+00331KA2240N-00441MA1102475084295MD1340134+9999REMSYN092AAXX  08064 72365 32666 63405 11044 21133 38432 40264 53013 90556 333 10033 21044 555 90806;MET14001/07/10 22:56:02 METAR KABQ 080556Z 34005KT 10SM FEW049 SCT070 BKN150 M04/M13 A3026 RMK AO2 SLP264 MTNS OBSC NE T10441133 10017 21044 53013
0251723650230502010010806567+35042-106610FM-15+1620KABQ V0303305N00215014945MN0160935N5-00505-01395102665ADDAA101000095GA1075+014945999GA2075+039625999GD13991+0149459GD23991+0396259GF107991999999999999999999MA1102515084325REMMET12501/07/10 23:56:02 METAR KABQ 080656Z 33004KT 10SM BKN049 BKN130 M05/M14 A3027 RMK AO2 SLP266 MTNS OBSC NE T10501139 400281050
0939723650230502010010806596+35042-106610SOD  +1620KABQ V030999999999999999999999999999+99999+99999999999ADDAA124000095AJ100009199999999AN1024000099KA1240M+00285KA2240N-00495MG1084124101694OE11240102807008405OE22240089408011555OE33240032299999995REMSOD75424 HR PRECIPITATION (IN):0.00  24 HR MAX TEMP (F):37 24 HR MAX TEMP TIME (LST):1547 24 HR MIN TEMP (F):23 24 HR MIN TEMP TIME (LST):2359 AVERAGE STATION PRESSURE:24.840 MINIMUM SEA LEVEL PRESSURE:30.03 TIME OF OCCURRENCE:0136 PEAK WIND SPEED (MPH):23  PEAK WIND DIR (DEG):70  PEAK WIND TIME (LST):0840  FASTEST 2MIN SPEED (MPH):20 FASTEST 2MIN DIR (DEG):80  FASTEST 2MIN TIME (LST):1155 AVERAGE WIND SPEED (MPH):7.2  24 HR AVG TEMP (F):30 DEPART FROM NORMAL: -5  HEATING DEGREE DAYS:35  COOLING DEGREE DAYS:0   LATEST DAY MAX TEMP (0700-1900 LST):37  LATEST NIGHT MIN TEMP(1900-0800 LST):25 HOURLY INCREMENTAL PRECIPITATION VALUES (IN):.00 0.00 0.00 0.00 0.00 0.00 0.00 0.00 0.00 0.00 0.00 0.00 0.00 0.00 0.00 0.00 0.00 0.00 0.00 0.00 0.00 0.00 0.00 0.00EQDR01     N7GJS072R02     N7GKS075
0247723650230502010010807567+35042-106610FM-15+1620KABQ V0303405N002152200059N0160935N5-00565-01445102665ADDAA101000095GA1045+014945999GA2045+039625999GD12991+0149459GD22991+0396259GF104991999999999999999999MA1102515084325REMMET12101/08/10 00:56:02 METAR KABQ 080756Z 34004KT 10SM SCT049 SCT130 M06/M14 A3027 RMK AO2 SLP266 MTNS OBSC NE T10561144 (RSW)
0349723650230502010010808567+35042-106610SY-MT+1620KABQ V0303405N002652200059N0160935N5-00615-01505102685ADDAA101000095GA1025+014945999GA2045+039625999GD11991+0149459GD22991+0396259GF104991999999012501999999MA1102545084345MD1340054+9999REMSYN076AAXX  08094 72365 32666 43405 11061 21150 38438 40268 53005 90856 555 90809;MET12701/08/10 01:56:02 METAR KABQ 080856Z 34005KT 10SM FEW049 SCT130 M06/M15 A3028 RMK AO2 SLP268 MTNS OBSC NE T10611150 53005 (RSW)
0247723650230502010010809567+35042-106610FM-15+1620KABQ V0303505N00265039625MN0160935N5-00675-01565102795ADDAA101000095GA1045+014945999GA2075+039625999GD12991+0149459GD23991+0396259GF107991999999999999999999MA1102615084405REMMET12101/08/10 02:56:02 METAR KABQ 080956Z 35005KT 10SM SCT049 BKN130 M07/M16 A3030 RMK AO2 SLP279 MTNS OBSC NE T10671156 (RSW)
0247723650230502010010810567+35042-106610FM-15+1620KABQ V0309999V003152200059N0160935N5-00675-01565102825ADDAA101000095GA1045+014945999GA2045+039625999GD12991+0149459GD22991+0396259GF104991999999999999999999MA1102645084435REMMET12101/08/10 03:56:02 METAR KABQ 081056Z VRB06KT 10SM SCT049 SCT130 M07/M16 A3031 RMK AO2 SLP282 MTNS OBSC NE T10671156 (RSW)
0403723650230502010010811567+35042-106610SY-MT+1620KABQ V0303405N003152200059N0160935N5-00785-01615102895ADDAA101000095GA1045+014945999GA2045+039625999GD12991+0149459GD22991+0396259GF104991999999012501999999KA1240M+00281KA2120N-00781MA1102685084465MD1140134+9999REMSYN092AAXX  08124 72365 32666 43406 11078 21161 38449 40289 51013 91156 333 10028 21078 555 90812;MET13901/08/10 04:56:02 METAR KABQ 081156Z 34006KT 10SM SCT049 SCT130 M08/M16 A3032 RMK AO2 SLP289 MTNS OBSC NE T10781161 11044 21078 51013 (RSW)
0234723650230502010010812567+35042-106610FM-15+1620KABQ V0300605N005752200059N0160935N5-00725-01675102925ADDAA101000095GA1025+014945999GA2045+039625999GD11991+0149459GD22991+0396259GF104991999999999999999999MA1102715084495REMMET10801/08/10 05:56:02 METAR KABQ 081256Z 06011KT 10SM FEW049 SCT130 M07/M17 A3033 RMK AO2 SLP292 T10721167 (RSW)
0195723650230502010010813567+35042-106610FM-15+1620KABQ V0303605N002652200059N0160935N5-00835-01675103055ADDAA101000095GA1025+012195999GD11991+0121959GF102991999999999999999999MA1102785084555REMMET10001/08/10 06:56:02 METAR KABQ 081356Z 36005KT 10SM FEW040 M08/M17 A3035 RMK AO2 SLP305 T10831167 (WT)
0297723650230502010010814567+35042-106610SY-MT+1620KABQ V0309999C000052200059N0160935N5-00785-01615103095ADDAA101000095GA1025+012195999GD11991+0121959GF102991999999012501999999MA1102785084555MD1340094+9999REMSYN076AAXX  08154 72365 32666 20000 11078 21161 38458 40309 53009 91456 555 90815;MET10601/08/10 07:56:02 METAR KABQ 081456Z 00000KT 10SM FEW040 M08/M16 A3035 RMK AO2 SLP309 T10781161 53009 (WT)
0161723650230502010010815567+35042-106610FM-15+1620KABQ V0303305N003152200059N0160935N5-00675-01615103165ADDAA101000095GF100991999999999999999999MA1102845084605REMMET09701/08/10 08:56:02 METAR KABQ 081556Z 33006KT 10SM CLR M07/M16 A3037 RMK AO2 SLP316 T10671161 (WT)
0161723650230502010010816567+35042-106610FM-15+1620KABQ V0303405N002652200059N0160935N5-00505-01565103185ADDAA101000095GF100991999999999999999999MA1102915084665REMMET09701/08/10 09:56:02 METAR KABQ 081656Z 34005KT 10SM CLR M05/M16 A3039 RMK AO2 SLP318 T10501156 (WT)
0317723650230502010010817567+35042-106610SY-MT+1620KABQ V0309999C000052200059N0160935N5-00335-01445103125ADDAA101000095GF100991001001999999001001KA1120M-00331KA2240N-00891MA1102885084635MD1040064+9999REMSYN092AAXX  08184 72365 32966 00000 11033 21144 38466 40312 50006 91756 333 11033 21089 555 90818;MET11501/08/10 10:56:02 METAR KABQ 081756Z 00000KT 10SM CLR M03/M14 A3038 RMK AO2 SLP312 T10331144 11033 21089 50006 (WT)
0161723650230502010010818567+35042-106610FM-15+1620KABQ V0309999C000052200059N0160935N5-00225-01335102995ADDAA101000095GF100991999999999999999999MA1102785084555REMMET09701/08/10 11:56:02 METAR KABQ 081856Z 00000KT 10SM CLR M02/M13 A3035 RMK AO2 SLP299 T10221133 (WT)
0161723650230502010010819567+35042-106610FM-15+1620KABQ V0309999C000052200059N0160935N5-00065-01285102885ADDAA101000095GF100991999999999999999999MA1102685084465REMMET09701/08/10 12:56:02 METAR KABQ 081956Z 00000KT 10SM CLR M01/M13 A3032 RMK AO2 SLP288 T10061128 (WT)
0262723650230502010010820567+35042-106610SY-MT+1620KABQ V0309999C000052200059N0160935N5+00065-01225102815ADDAA101000095GF100991001001999999001001MA1102645084435MD1640214+9999REMSYN076AAXX  08214 72365 32966 00000 10006 21122 38446 40281 56021 92056 555 90821;MET10201/08/10 13:56:02 METAR KABQ 082056Z 00000KT 10SM CLR 01/M12 A3031 RMK AO2 SLP281 T00061122 56021 (WT)
0160723650230502010010821567+35042-106610FM-15+1620KABQ V0309999C000052200059N0160935N5+00175-01225102775ADDAA101000095GF100991999999999999999999MA1102615084405REMMET09601/08/10 14:56:02 METAR KABQ 082156Z 00000KT 10SM CLR 02/M12 A3030 RMK AO2 SLP277 T00171122 (AR)
0160723650230502010010822567+35042-106610FM-15+1620KABQ V0309999C000052200059N0160935N5+00225-01285102785ADDAA101000095GF100991999999999999999999MA1102615084405REMMET09601/08/10 15:56:02 METAR KABQ 082256Z 00000KT 10SM CLR 02/M13 A3030 RMK AO2 SLP278 T00221128 (AR)
0316723650230502010010823567+35042-106610SY-MT+1620KABQ V0301605N002152200059N0160935N5+00115-01285102815ADDAA101000095GF100991001001999999001001KA1120M+00221KA2180N-00781MA1102615084405MD1840034+9999REMSYN092AAXX  09004 72365 32966 01604 10011 21128 38443 40281 58003 92356 333 10022 21078 555 90900;MET11401/08/10 16:56:02 METAR KABQ 082356Z 16004KT 10SM CLR 01/M13 A3030 RMK AO2 SLP281 T00111128 10022 21039 58003 (AR)
0189723650230502010010900567+35042-106610FM-15+1620KABQ V0301505N002652200059N0160935N5+00005-01285102835ADDAA101000095GA1025+060965999GD11991+0609659GF102991999999999999999999MA1102615084405REMMET09401/08/10 17:56:02 METAR KABQ 090056Z 15005KT 10SM FEW200 00/M13 A3030 RMK AO2 SLP283 T00001128
0156723650230502010010901567+35042-106610FM-15+1620KABQ V0309999V001552200059N0160935N5-00285-01335102975ADDAA101000095GF100991999999999999999999MA1102645084435REMMET09201/08/10 18:56:01 METAR KABQ 090156Z VRB03KT 10SM CLR M03/M13 A3031 RMK AO2 SLP297 T10281133
0176723650230502010010902567+35042-106610FM-15+1620KABQ V0309999C000052200059N0160935N5-00225-01335103005ADDAA101000095GF100991999999999999999999MA1102715084495MD1340104+9999REMMET09801/08/10 19:56:02 METAR KABQ 090256Z 00000KT 10SM CLR M02/M13 A3033 RMK AO2 SLP300 T10221133 53010
0159723650230502010010903004+35033-106617FM-12+1618KABQ V0209999C000012200019N0160001N1-00221-01331103001ADDGA1001+999999999GF100991001001999999001001MA1999999084521MD1310101+9999REMSYN076AAXX  09034 72365 32966 00000 11022 21133 38452 40300 53010 90256 555 90903;
0156723650230502010010903567+35042-106610FM-15+1620KABQ V0303405N002652200059N0160935N5-00175-01285102965ADDAA101000095GF100991999999999999999999MA1102715084495REMMET09201/08/10 20:56:02 METAR KABQ 090356Z 34005KT 10SM CLR M02/M13 A3033 RMK AO2 SLP296 T10171128
0190723650230502010010904567+35042-106610FM-15+1620KABQ V0300105N003152200059N0160935N5-00225-01285102985ADDAA101000095GA1025+060965999GD11991+0609659GF102991999999999999999999MA1102785084555REMMET09501/08/10 21:56:02 METAR KABQ 090456Z 01006KT 10SM FEW200 M02/M13 A3035 RMK AO2 SLP298 T10221128
0346723650230502010010905567+35042-106610SY-MT+1620KABQ V0300105N003652200059N0160935N5-00225-01225102995ADDAA101000095GA1025+060965999GD11991+0609659GF102991999999999999999999KA1240M+00111KA2240N-00781MA1102785084555MD1340074+9999REMSYN092AAXX  09064 72365 32966 20107 11022 21122 38458 40299 53007 90556 333 10011 21078 555 90906;MET11301/08/10 22:56:02 METAR KABQ 090556Z 01007KT 10SM FEW200 M02/M12 A3035 RMK AO2 SLP299 T10221122 10011 21028 53007
0200723650230502010010906567+35042-106610FM-15+1620KABQ V0303405N003152200059N0160935N5-00225-01225102975ADDAA101000095GA1025+060965999GD11991+0609659GF102991999999999999999999MA1102815084585REMMET10501/08/10 23:56:02 METAR KABQ 090656Z 34006KT 10SM FEW200 M02/M12 A3036 RMK AO2 SLP297 T10221122 400221089
0939723650230502010010906596+35042-106610SOD  +1620KABQ V030999999999999999999999999999+99999+99999999999ADDAA124000095AJ100009199999999AN1024000099KA1240M+00225KA2240N-00885MG1084514102644OE11240093908002365OE22240071507002365OE33240019299999995REMSOD75424 HR PRECIPITATION (IN):0.00  24 HR MAX TEMP (F):36 24 HR MAX TEMP TIME (LST):1558 24 HR MIN TEMP (F):16 24 HR MIN TEMP TIME (LST):0719 AVERAGE STATION PRESSURE:24.955 MINIMUM SEA LEVEL PRESSURE:30.31 TIME OF OCCURRENCE:0056 PEAK WIND SPEED (MPH):21  PEAK WIND DIR (DEG):80  PEAK WIND TIME (LST):0236  FASTEST 2MIN SPEED (MPH):16 FASTEST 2MIN DIR (DEG):70  FASTEST 2MIN TIME (LST):0236 AVERAGE WIND SPEED (MPH):4.3  24 HR AVG TEMP (F):26 DEPART FROM NORMAL: -9  HEATING DEGREE DAYS:39  COOLING DEGREE DAYS:0   LATEST DAY MAX TEMP (0700-1900 LST):36  LATEST NIGHT MIN TEMP(1900-0800 LST):16 HOURLY INCREMENTAL PRECIPITATION VALUES (IN):.00 0.00 0.00 0.00 0.00 0.00 0.00 0.00 0.00 0.00 0.00 0.00 0.00 0.00 0.00 0.00 0.00 0.00 0.00 0.00 0.00 0.00 0.00 0.00EQDR01     N7GJS072R02     N7GKS075
0196723650230502010010907567+35042-106610FM-15+1620KABQ V0303605N003152200059N0160935N5-00225-01285102845ADDAA101000095GA1025+060965999GD11991+0609659GF102991999999999999999999MA1102715084495REMMET10101/09/10 00:56:02 METAR KABQ 090756Z 36006KT 10SM FEW200 M02/M13 A3033 RMK AO2 SLP284 T10221128 (CLR)
0216723650230502010010908567+35042-106610FM-15+1620KABQ V0303505N004652200059N0160935N5-00225-01115102845ADDAA101000095GA1025+057915999GD11991+0579159GF102991999999999999999999MA1102745084525MD1540034+9999REMMET10701/09/10 01:56:02 METAR KABQ 090856Z 35009KT 10SM FEW190 M02/M11 A3034 RMK AO2 SLP284 T10221111 55003 (CLR)
0143723650230502010010909004+35033-106617FM-12+1618KABQ V0203501N004612200019N0160001N1-00221-01111102841ADDGF102991999999999999999999MA1999999084551MD1510031+9999REMSYN076AAXX  09094 72365 32966 23509 11022 21111 38455 40284 55003 90856 555 90909;
0196723650230502010010909567+35042-106610FM-15+1620KABQ V0303405N004152200059N0160935N5-00445-01175102895ADDAA101000095GA1025+057915999GD11991+0579159GF102991999999999999999999MA1102785084555REMMET10101/09/10 02:56:02 METAR KABQ 090956Z 34008KT 10SM FEW190 M04/M12 A3035 RMK AO2 SLP289 T10441117 (CLR)
0196723650230502010010910567+35042-106610FM-15+1620KABQ V0303605N004652200059N0160935N5-00335-00945102815ADDAA101000095GA1025+057915999GD11991+0579159GF102991999999999999999999MA1102715084495REMMET10101/09/10 03:56:02 METAR KABQ 091056Z 36009KT 10SM FEW190 M03/M09 A3033 RMK AO2 SLP281 T10331094 (CLR)
0352723650230502010010911567+35042-106610SY-MT+1620KABQ V0303605N003652200059N0160935N5-00445-01005102795ADDAA101000095GA1025+057915999GD11991+0579159GF102991999999999999999999KA1240M+00221KA2120N-00441MA1102645084435MD1840084+9999REMSYN092AAXX  09124 72365 32966 23607 11044 21100 38446 40279 58008 91156 333 10022 21044 555 90912;MET11901/09/10 04:56:02 METAR KABQ 091156Z 36007KT 10SM FEW190 M04/M10 A3031 RMK AO2 SLP279 T10441100 11017 21044 58008 (CLR)
0196723650230502010010912567+35042-106610FM-15+1620KABQ V0303605N004152200059N0160935N5-00565-01065102885ADDAA101000095GA1045+054865999GD12991+0548659GF104991999999999999999999MA1102685084465REMMET10101/09/10 05:56:02 METAR KABQ 091256Z 36008KT 10SM SCT180 M06/M11 A3032 RMK AO2 SLP288 T10561106 (CLR)
0234723650230502010010913567+35042-106610FM-15+1620KABQ V0303505N00465054865MN0160935N5-00615-01115102995ADDAA101000095GA1025+027435999GA2075+054865999GD11991+0274359GD23991+0548659GF107991999999999999999999MA1102715084495REMMET10801/09/10 06:56:02 METAR KABQ 091356Z 35009KT 10SM FEW090 BKN180 M06/M11 A3033 RMK AO2 SLP299 T10611111 (CLR)
0309723650230502010010914567+35042-106610FM-15+1620KABQ V0309999C00005051825MN0160935N5-00565-01065103015ADDAA101000095GA1025+027435999GA2075+051825999GA3075+060965999GD11991+0274359GD23991+0518259GD33991+0609659GF107991999999999999999999MA1102745084525MD1340094+9999REMMET13801/09/10 07:56:02 METAR KABQ 091456Z 00000KT 10SM FEW090 BKN170 BKN200 M06/M11 A3034 RMK AO2 SLP301 VIRGA OHD AND NW T10561106 53009 (CLR)
0143723650230502010010915004+35033-106617FM-12+1618KABQ V0209999C000019999999N0160001N1-00561-01061103011ADDGF106991999999999999999999MA1999999084551MD1310091+9999REMSYN076AAXX  09154 72365 32966 60000 11056 21106 38455 40301 53009 91456 555 90915;
0233723650230502010010915567+35042-106610FM-15+1620KABQ V0303605N00365051825MN0160935N5-00445-01115103025ADDAA101000095GA1075+051825999GA2075+060965999GD13991+0518259GD23991+0609659GF107991999999999999999999MA1102815084585REMMET10701/09/10 08:56:02 METAR KABQ 091556Z 36007KT 10SM BKN170 BKN200 M04/M11 A3036 RMK AO2 SLP302 T10441111 (AR)
0233723650230502010010916567+35042-106610FM-15+1620KABQ V0303405N00315067065MN0160935N5-00335-01115103075ADDAA101000095GA1045+048775999GA2075+067065999GD12991+0487759GD23991+0670659GF107991999999999999999999MA1102885084635REMMET10701/09/10 09:56:02 METAR KABQ 091656Z 34006KT 10SM SCT160 BKN220 M03/M11 A3038 RMK AO2 SLP307 T10331111 (AR)
0290723650230502010010917567+35042-106610FM-15+1620KABQ V0303305N00155067065MN0160935N5+00005-01115102995ADDAA101000095GA1045+048775999GA2075+067065999GD12991+0487759GD23991+0670659GF107991999999999999999999KA1999M+00001KA2999N-00611MA1102885084635MD1040094+9999REMMET12401/09/10 10:56:02 METAR KABQ 091756Z 33003KT 10SM SCT160 BKN220 00/M11 A3038 RMK AO2 SLP299 T00001111 10000 21061 50009 (AR)
0185723650230502010010918004+35033-106617FM-12+1618KABQ V0203301N001519999999N0160001N1+00001-01111102991ADDGF106991999999999999999999KA1120M+00001KA2240N-00611MA1999999084661MD1010091+9999REMSYN092AAXX  09184 72365 32966 63303 10000 21111 38466 40299 50009 91756 333 10000 21061 555 90918;
0232723650230502010010918567+35042-106610FM-15+1620KABQ V0309999C00005060965MN0160935N5+00285-01335102815ADDAA101000095GA1025+048775999GA2075+060965999GD11991+0487759GD23991+0609659GF107991999999999999999999MA1102785084555REMMET10601/09/10 11:56:02 METAR KABQ 091856Z 00000KT 10SM FEW160 BKN200 03/M13 A3035 RMK AO2 SLP281 T00281133 (AR)
0232723650230502010010919567+35042-106610FM-15+1620KABQ V0303005N00215060965MN0160935N5+00395-01335102665ADDAA101000095GA1025+048775999GA2075+060965999GD11991+0487759GD23991+0609659GF107991999999999999999999MA1102645084435REMMET10601/09/10 12:56:02 METAR KABQ 091956Z 30004KT 10SM FEW160 BKN200 04/M13 A3031 RMK AO2 SLP266 T00391133 (AR)
0334723650230502010010920567+35042-106610SY-MT+1620KABQ V0309999C00005060965MN0160935N5+00565-01395102575ADDAA101000095GA1025+045725999GA2075+060965999GD11991+0457259GD23991+0609659GF106991999999999999999999MA1102575084375MD1640244+9999REMSYN076AAXX  09214 72365 32966 60000 10056 21139 38440 40257 56024 92056 555 90921;MET11201/09/10 13:56:02 METAR KABQ 092056Z 00000KT 10SM FEW150 BKN200 06/M14 A3029 RMK AO2 SLP257 T00561139 56024 (AR)
0232723650230502010010921567+35042-106610FM-15+1620KABQ V0309999C00005060965MN0160935N5+00565-01505102575ADDAA101000095GA1025+045725999GA2075+060965999GD11991+0457259GD23991+0609659GF107991999999999999999999MA1102545084345REMMET10601/09/10 14:56:02 METAR KABQ 092156Z 00000KT 10SM FEW150 BKN200 06/M15 A3028 RMK AO2 SLP257 T00561150 (AR)
0234723650230502010010922567+35042-106610FM-15+1620KABQ V0301405N002152200059N0160935N5+00615-01565102535ADDAA101000095GA1025+045725999GA2045+060965999GD11991+0457259GD22991+0609659GF104991999999999999999999MA1102545084345REMMET10801/09/10 15:56:02 METAR KABQ 092256Z 14004KT 10SM FEW150 SCT200 06/M16 A3028 RMK AO2 SLP253 T00611156 $ (AR)
0391723650230502010010923567+35042-106610SY-MT+1620KABQ V0309999C000052200059N0160935N5+00565-01675102575ADDAA101000095GA1025+036585999GA2045+060965999GD11991+0365859GD22991+0609659GF104991999999999999999999KA1120M+00671KA2180N-00431MA1102545084345MD1540034+9999REMSYN092AAXX  10004 72365 32966 40000 10056 21167 38438 40257 55003 92356 333 10067 21043 555 91000;MET12701/09/10 16:56:02 METAR KABQ 092356Z 00000KT 10SM FEW120 SCT200 06/M17 A3028 RMK AO2 SLP257 T00561167 10067 20000 55003 $ (SRS)
0229723650230502010011000567+35042-106610FM-15+1620KABQ V0301105N00215060965MN0160935N5+00285-01675102685ADDAA101000095GA1025+036585999GA2075+060965999GD11991+0365859GD23991+0609659GF107991999999999999999999MA1102575084375REMMET10301/09/10 17:56:02 METAR KABQ 100056Z 11004KT 10SM FEW120 BKN200 03/M17 A3029 RMK AO2 SLP268 T00281167 $
0191723650230502010011001567+35042-106610FM-15+1620KABQ V0301105N002152200059N0160935N5+00115-01675102765ADDAA101000095GA1045+060965999GD12991+0609659GF104991999999999999999999MA1102615084405REMMET09601/09/10 18:56:02 METAR KABQ 100156Z 11004KT 10SM SCT200 01/M17 A3030 RMK AO2 SLP276 T00111167 $
0293723650230502010011002567+35042-106610SY-MT+1620KABQ V0303305N001552200059N0160935N5+00285-01615102735ADDAA101000095GA1025+060965999GD11991+0609659GF102991999999999999999999MA1102615084405MD1140074+9999REMSYN076AAXX  10034 72365 32966 23303 10028 21161 38443 40273 51007 90256 555 91003;MET10201/09/10 19:56:02 METAR KABQ 100256Z 33003KT 10SM FEW200 03/M16 A3030 RMK AO2 SLP273 T00281161 51007 $
0156723650230502010011003567+35042-106610FM-15+1620KABQ V0303605N002152200059N0128755N5+00115-01505102805ADDAA101000095GF100991999999999999999999MA1102685084465REMMET09201/09/10 20:56:02 METAR KABQ 100356Z 36004KT 8SM CLR 01/M15 A3032 RMK AO2 SLP280 T00111150 $
0156723650230502010011004567+35042-106610FM-15+1620KABQ V0303605N002152200059N0144845N5+00115-01505102785ADDAA101000095GF100991999999999999999999MA1102685084465REMMET09201/09/10 21:56:02 METAR KABQ 100456Z 36004KT 9SM CLR 01/M15 A3032 RMK AO2 SLP278 T00111150 $
0314723650230502010011005567+35042-106610SY-MT+1620KABQ V0301005N001552200059N0160935N5-00445-01565102885ADDAA101000095GF100991001001999999001001KA1240M+00561KA2240N-00441MA1102715084495MD1240084+9999REMSYN092AAXX  10064 72365 32966 01003 11044 21156 38452 40288 52008 90556 333 10056 21044 555 91006;MET11201/09/10 22:56:02 METAR KABQ 100556Z 10003KT 10SM CLR M04/M16 A3033 RMK AO2 SLP288 T10441156 10056 21044 52008 $
0168723650230502010011006567+35042-106610FM-15+1620KABQ V0300105N001552200059N0160935N5-00335-01565102775ADDAA101000095GF100991999999999999999999MA1102715084495REMMET10401/09/10 23:56:02 METAR KABQ 100656Z 01003KT 10SM CLR M03/M16 A3033 RMK AO2 SLP277 T10331156 400671061 $
0939723650230502010011006596+35042-106610SOD  +1620KABQ V030999999999999999999999999999+99999+99999999999ADDAA124000095AJ100009199999999AN1024000099KA1240M+00675KA2240N-00605MG1084474102514OE11240062636006555OE22240053636007165OE33240022499999995REMSOD75424 HR PRECIPITATION (IN):0.00  24 HR MAX TEMP (F):44 24 HR MAX TEMP TIME (LST):1621 24 HR MIN TEMP (F):21 24 HR MIN TEMP TIME (LST):0753 AVERAGE STATION PRESSURE:24.945 MINIMUM SEA LEVEL PRESSURE:30.27 TIME OF OCCURRENCE:1621 PEAK WIND SPEED (MPH):14  PEAK WIND DIR (DEG):360 PEAK WIND TIME (LST):0655  FASTEST 2MIN SPEED (MPH):12 FASTEST 2MIN DIR (DEG):360 FASTEST 2MIN TIME (LST):0716 AVERAGE WIND SPEED (MPH):5.0  24 HR AVG TEMP (F):33 DEPART FROM NORMAL: -2  HEATING DEGREE DAYS:32  COOLING DEGREE DAYS:0   LATEST DAY MAX TEMP (0700-1900 LST):44  LATEST NIGHT MIN TEMP(1900-0800 LST):21 HOURLY INCREMENTAL PRECIPITATION VALUES (IN):.00 0.00 0.00 0.00 0.00 0.00 0.00 0.00 0.00 0.00 0.00 0.00 0.00 0.00 0.00 0.00 0.00 0.00 0.00 0.00 0.00 0.00 0.00 0.00EQDR01     N7GJS072R02     N7GKS075
0163723650230502010011007567+35042-106610FM-15+1620KABQ V0300105N001552200059N0144845N5-00285-01505102705ADDAA101000095GF100991999999999999999999MA1102645084435REMMET09901/10/10 00:56:02 METAR KABQ 100756Z 01003KT 9SM CLR M03/M15 A3031 RMK AO2 SLP270 T10281150 $ (CLR)
0266723650230502010011008567+35042-106610SY-MT+1620KABQ V0303205N002152200059N0160935N5-00335-01505102695ADDAA101000095GF100991001001999999001001MA1102685084465MD1540044+9999REMSYN076AAXX  10094 72365 32966 03204 11033 21150 38449 40269 55004 90856 555 91009;MET10601/10/10 01:56:02 METAR KABQ 100856Z 32004KT 10SM CLR M03/M15 A3032 RMK AO2 SLP269 T10331150 55004 $ (CLR)
0163723650230502010011009567+35042-106610FM-15+1620KABQ V0300105N001552200059N0128755N5-00445-01445102735ADDAA101000095GF100991999999999999999999MA1102685084465REMMET09901/10/10 02:56:02 METAR KABQ 100956Z 01003KT 8SM CLR M04/M14 A3032 RMK AO2 SLP273 T10441144 $ (CLR)
0164723650230502010011010567+35042-106610FM-15+1620KABQ V0309999C000052200059N0160935N5-00565-01395102745ADDAA101000095GF100991999999999999999999MA1102715084495REMMET10001/10/10 03:56:02 METAR KABQ 101056Z 00000KT 10SM CLR M06/M14 A3033 RMK AO2 SLP274 T10561139 $ (CLR)
0222723650230502010011011567+35042-106610FM-15+1620KABQ V0300105N001552200059N0160935N5-00615-01395102775ADDAA101000095GF100991999999999999999999KA1999M-00221KA2999N-00671MA1102715084495MD1140034+9999REMMET11801/10/10 04:56:02 METAR KABQ 101156Z 01003KT 10SM CLR M06/M14 A3033 RMK AO2 SLP277 T10611139 11022 21067 51003 $ (CLR)
0201723650230502010011012004+35033-106617FM-12+1618KABQ V0200101N001512200019N0160001N1-00611-01391102771ADDGA1001+999999999GF100991001001999999001001KA1240M+00671KA2120N-00671MA1999999084521MD1110031+9999REMSYN092AAXX  10124 72365 32966 00103 11061 21139 38452 40277 51003 91156 333 10067 21067 555 91012;
0164723650230502010011012567+35042-106610FM-15+1620KABQ V0303505N002152200059N0160935N5-00505-01395102815ADDAA101000095GF100991999999999999999999MA1102715084495REMMET10001/10/10 05:56:02 METAR KABQ 101256Z 35004KT 10SM CLR M05/M14 A3033 RMK AO2 SLP281 T10501139 $ (CLR)
0198723650230502010011013567+35042-106610FM-15+1620KABQ V0300205N003652200059N0160935N5-00615-01395102905ADDAA101000095GA1045+060965999GD12991+0609659GF104991999999999999999999MA1102715084495REMMET10301/10/10 06:56:02 METAR KABQ 101356Z 02007KT 10SM SCT200 M06/M14 A3033 RMK AO2 SLP290 T10611139 $ (CLR)
0338723650230502010011014567+35042-106610SY-MT+1620KABQ V0303505N00515060965MN0160935N5-00505-01445102935ADDAA101000095GA1025+054865999GA2085+060965999GD11991+0548659GD24991+0609659GF108991999999999999999999MA1102815084585MD1340094+9999REMSYN076AAXX  10154 72365 32966 83510 11050 21144 38461 40293 53009 91456 555 91015;MET11601/10/10 07:56:02 METAR KABQ 101456Z 35010KT 10SM FEW180 OVC200 M05/M14 A3036 RMK AO2 SLP293 T10501144 53009 $ (CLR)
0236723650230502010011015567+35042-106610FM-15+1620KABQ V0303605N00265067065MN0160935N5-00395-01395102995ADDAA101000095GA1025+054865999GA2075+067065999GD11991+0548659GD23991+0670659GF107991999999999999999999MA1102885084635REMMET11001/10/10 08:56:02 METAR KABQ 101556Z 36005KT 10SM FEW180 BKN220 M04/M14 A3038 RMK AO2 SLP299 T10391139 $ (RTD)
0236723650230502010011016567+35042-106610FM-15+1620KABQ V0300105N00365067065MN0160935N5-00115-01335102975ADDAA101000095GA1025+054865999GA2075+067065999GD11991+0548659GD23991+0670659GF107991999999999999999999MA1102885084635REMMET11001/10/10 09:56:02 METAR KABQ 101656Z 01007KT 10SM FEW180 BKN220 M01/M13 A3038 RMK AO2 SLP297 T10111133 $ (RTD)
0391723650230502010011017567+35042-106610SY-MT+1620KABQ V0309999V00155067065MN0160935N5+00175-01335102965ADDAA101000095GA1025+054865999GA2075+067065999GD11991+0548659GD23991+0670659GF106991999999999999999999KA1120M+00171KA2240N-00671MA1102845084605MD1040034+9999REMSYN092AAXX  10184 72365 32966 6//03 10017 21133 38464 40296 50003 91756 333 10017 21067 555 91018;MET12701/10/10 10:56:02 METAR KABQ 101756Z VRB03KT 10SM FEW180 BKN220 02/M13 A3037 RMK AO2 SLP296 T00171133 10017 21067 50003 $ (RTD)
0235723650230502010011018567+35042-106610FM-15+1620KABQ V0303105N00155067065MN0160935N5+00335-01335102815ADDAA101000095GA1025+054865999GA2075+067065999GD11991+0548659GD23991+0670659GF107991999999999999999999MA1102745084525REMMET10901/10/10 11:56:02 METAR KABQ 101856Z 31003KT 10SM FEW180 BKN220 03/M13 A3034 RMK AO2 SLP281 T00331133 $ (RTD)
0235723650230502010011019567+35042-106610FM-15+1620KABQ V0309999C00005067065MN0160935N5+00565-01505102605ADDAA101000095GA1025+054865999GA2075+067065999GD11991+0548659GD23991+0670659GF107991999999999999999999MA1102615084405REMMET10901/10/10 12:56:02 METAR KABQ 101956Z 00000KT 10SM FEW180 BKN220 06/M15 A3030 RMK AO2 SLP260 T00561150 $ (RTD)
0337723650230502010011020567+35042-106610SY-MT+1620KABQ V0309999C00005076205MN0160935N5+00725-01895102485ADDAA101000095GA1025+054865999GA2085+076205999GD11991+0548659GD24991+0762059GF108991999999999999999999MA1102515084325MD1640284+9999REMSYN076AAXX  10214 72365 32966 80000 10072 21189 38435 40248 56028 92056 555 91021;MET11501/10/10 13:56:02 METAR KABQ 102056Z 00000KT 10SM FEW180 OVC250 07/M19 A3027 RMK AO2 SLP248 T00721189 56028 $ (RTD)
0235723650230502010011021567+35042-106610FM-15+1620KABQ V0309999C00005076205MN0160935N5+00835-01835102455ADDAA101000095GA1025+054865999GA2085+076205999GD11991+0548659GD24991+0762059GF108991999999999999999999MA1102515084325REMMET10901/10/10 14:56:02 METAR KABQ 102156Z 00000KT 10SM FEW180 OVC250 08/M18 A3027 RMK AO2 SLP245 T00831183 $ (RTD)
